2021-12-09 00:00:00.6480 8=FIX.4.2 9=69 35=5 34=2353 49=JUSTETNA 52=20211209-00:00:00.648 56=TRAFIX 128=LAMP 10=172  
2021-12-09 06:02:17.8413 8=FIX.4.2 9=78 35=A 34=1 49=JUSTETNA 52=20211209-06:02:17.825 56=TRAFIX 128=LAMP 98=0 108=30 10=066  
2021-12-09 06:02:17.8413 8=FIX.4.2 9=69 35=A 34=1 49=TRAFIX 52=20211209-06:02:17.837 56=JUSTETNA 98=0 108=30 10=066  
2021-12-09 06:02:47.8550 8=FIX.4.2 9=57 35=0 34=2 49=TRAFIX 52=20211209-06:02:47.856 56=JUSTETNA 10=026  
2021-12-09 06:02:47.8550 8=FIX.4.2 9=66 35=0 34=2 49=JUSTETNA 52=20211209-06:02:47.855 56=TRAFIX 128=LAMP 10=028  
2021-12-09 06:03:17.8838 8=FIX.4.2 9=57 35=0 34=3 49=TRAFIX 52=20211209-06:03:17.877 56=JUSTETNA 10=028  
2021-12-09 06:03:17.8838 8=FIX.4.2 9=66 35=0 34=3 49=JUSTETNA 52=20211209-06:03:17.883 56=TRAFIX 128=LAMP 10=028  
2021-12-09 06:03:47.9009 8=FIX.4.2 9=57 35=0 34=4 49=TRAFIX 52=20211209-06:03:47.901 56=JUSTETNA 10=020  
2021-12-09 06:03:47.9009 8=FIX.4.2 9=66 35=0 34=4 49=JUSTETNA 52=20211209-06:03:47.900 56=TRAFIX 128=LAMP 10=022  
2021-12-09 06:04:17.9276 8=FIX.4.2 9=57 35=0 34=5 49=TRAFIX 52=20211209-06:04:17.921 56=JUSTETNA 10=021  
2021-12-09 06:04:17.9276 8=FIX.4.2 9=66 35=0 34=5 49=JUSTETNA 52=20211209-06:04:17.927 56=TRAFIX 128=LAMP 10=030  
2021-12-09 06:04:47.9380 8=FIX.4.2 9=57 35=0 34=6 49=TRAFIX 52=20211209-06:04:47.942 56=JUSTETNA 10=028  
2021-12-09 06:04:47.9380 8=FIX.4.2 9=66 35=0 34=6 49=JUSTETNA 52=20211209-06:04:47.938 56=TRAFIX 128=LAMP 10=036  
2021-12-09 06:05:17.9695 8=FIX.4.2 9=57 35=0 34=7 49=TRAFIX 52=20211209-06:05:17.965 56=JUSTETNA 10=032  
2021-12-09 06:05:17.9695 8=FIX.4.2 9=66 35=0 34=7 49=JUSTETNA 52=20211209-06:05:17.969 56=TRAFIX 128=LAMP 10=039  
2021-12-09 06:05:47.9908 8=FIX.4.2 9=57 35=0 34=8 49=TRAFIX 52=20211209-06:05:47.988 56=JUSTETNA 10=041  
2021-12-09 06:05:48.0064 8=FIX.4.2 9=66 35=0 34=8 49=JUSTETNA 52=20211209-06:05:47.990 56=TRAFIX 128=LAMP 10=037  
2021-12-09 06:06:17.0228 8=FIX.4.2 9=57 35=0 34=9 49=TRAFIX 52=20211209-06:06:17.023 56=JUSTETNA 10=020  
2021-12-09 06:06:18.0266 8=FIX.4.2 9=66 35=0 34=9 49=JUSTETNA 52=20211209-06:06:18.026 56=TRAFIX 128=LAMP 10=027  
2021-12-09 06:06:47.0449 8=FIX.4.2 9=58 35=0 34=10 49=TRAFIX 52=20211209-06:06:47.038 56=JUSTETNA 10=070  
2021-12-09 06:06:48.0571 8=FIX.4.2 9=67 35=0 34=10 49=JUSTETNA 52=20211209-06:06:48.057 56=TRAFIX 128=LAMP 10=075  
2021-12-09 06:07:17.0654 8=FIX.4.2 9=58 35=0 34=11 49=TRAFIX 52=20211209-06:07:17.066 56=JUSTETNA 10=070  
2021-12-09 06:07:18.0682 8=FIX.4.2 9=67 35=0 34=11 49=JUSTETNA 52=20211209-06:07:18.068 56=TRAFIX 128=LAMP 10=076  
2021-12-09 06:07:47.0833 8=FIX.4.2 9=58 35=0 34=12 49=TRAFIX 52=20211209-06:07:47.079 56=JUSTETNA 10=078  
2021-12-09 06:07:48.0979 8=FIX.4.2 9=67 35=0 34=12 49=JUSTETNA 52=20211209-06:07:48.097 56=TRAFIX 128=LAMP 10=082  
2021-12-09 06:08:17.1158 8=FIX.4.2 9=58 35=0 34=13 49=TRAFIX 52=20211209-06:08:17.109 56=JUSTETNA 10=071  
2021-12-09 06:08:18.1192 8=FIX.4.2 9=67 35=0 34=13 49=JUSTETNA 52=20211209-06:08:18.119 56=TRAFIX 128=LAMP 10=076  
2021-12-09 06:08:47.1298 8=FIX.4.2 9=58 35=0 34=14 49=TRAFIX 52=20211209-06:08:47.131 56=JUSTETNA 10=070  
2021-12-09 06:08:48.1388 8=FIX.4.2 9=67 35=0 34=14 49=JUSTETNA 52=20211209-06:08:48.138 56=TRAFIX 128=LAMP 10=081  
2021-12-09 06:09:17.1459 8=FIX.4.2 9=58 35=0 34=15 49=TRAFIX 52=20211209-06:09:17.152 56=JUSTETNA 10=072  
2021-12-09 06:09:18.1645 8=FIX.4.2 9=67 35=0 34=15 49=JUSTETNA 52=20211209-06:09:18.164 56=TRAFIX 128=LAMP 10=079  
2021-12-09 06:09:47.1869 8=FIX.4.2 9=58 35=0 34=16 49=TRAFIX 52=20211209-06:09:47.179 56=JUSTETNA 10=085  
2021-12-09 06:09:48.1999 8=FIX.4.2 9=67 35=0 34=16 49=JUSTETNA 52=20211209-06:09:48.199 56=TRAFIX 128=LAMP 10=091  
2021-12-09 06:10:17.2114 8=FIX.4.2 9=58 35=0 34=17 49=TRAFIX 52=20211209-06:10:17.211 56=JUSTETNA 10=062  
2021-12-09 06:10:18.2147 8=FIX.4.2 9=67 35=0 34=17 49=JUSTETNA 52=20211209-06:10:18.214 56=TRAFIX 128=LAMP 10=069  
2021-12-09 06:10:47.2230 8=FIX.4.2 9=58 35=0 34=18 49=TRAFIX 52=20211209-06:10:47.229 56=JUSTETNA 10=075  
2021-12-09 06:10:48.2260 8=FIX.4.2 9=67 35=0 34=18 49=JUSTETNA 52=20211209-06:10:48.226 56=TRAFIX 128=LAMP 10=076  
2021-12-09 06:11:17.2486 8=FIX.4.2 9=58 35=0 34=19 49=TRAFIX 52=20211209-06:11:17.239 56=JUSTETNA 10=075  
2021-12-09 06:11:18.2579 8=FIX.4.2 9=67 35=0 34=19 49=JUSTETNA 52=20211209-06:11:18.257 56=TRAFIX 128=LAMP 10=079  
2021-12-09 06:11:47.2734 8=FIX.4.2 9=58 35=0 34=20 49=TRAFIX 52=20211209-06:11:47.273 56=JUSTETNA 10=068  
2021-12-09 06:11:48.2737 8=FIX.4.2 9=67 35=0 34=20 49=JUSTETNA 52=20211209-06:11:48.273 56=TRAFIX 128=LAMP 10=072  
2021-12-09 06:12:17.2864 8=FIX.4.2 9=58 35=0 34=21 49=TRAFIX 52=20211209-06:12:17.285 56=JUSTETNA 10=070  
2021-12-09 06:12:18.2881 8=FIX.4.2 9=67 35=0 34=21 49=JUSTETNA 52=20211209-06:12:18.288 56=TRAFIX 128=LAMP 10=077  
2021-12-09 06:12:47.2942 8=FIX.4.2 9=58 35=0 34=22 49=TRAFIX 52=20211209-06:12:47.301 56=JUSTETNA 10=063  
2021-12-09 06:12:48.3227 8=FIX.4.2 9=67 35=0 34=22 49=JUSTETNA 52=20211209-06:12:48.322 56=TRAFIX 128=LAMP 10=070  
2021-12-09 06:13:17.3392 8=FIX.4.2 9=58 35=0 34=23 49=TRAFIX 52=20211209-06:13:17.334 56=JUSTETNA 10=068  
2021-12-09 06:13:18.3427 8=FIX.4.2 9=67 35=0 34=23 49=JUSTETNA 52=20211209-06:13:18.342 56=TRAFIX 128=LAMP 10=071  
2021-12-09 06:13:47.3617 8=FIX.4.2 9=58 35=0 34=24 49=TRAFIX 52=20211209-06:13:47.354 56=JUSTETNA 10=074  
2021-12-09 06:13:48.3620 8=FIX.4.2 9=67 35=0 34=24 49=JUSTETNA 52=20211209-06:13:48.362 56=TRAFIX 128=LAMP 10=077  
2021-12-09 06:14:17.3855 8=FIX.4.2 9=58 35=0 34=25 49=TRAFIX 52=20211209-06:14:17.377 56=JUSTETNA 10=078  
2021-12-09 06:14:18.3900 8=FIX.4.2 9=67 35=0 34=25 49=JUSTETNA 52=20211209-06:14:18.390 56=TRAFIX 128=LAMP 10=077  
2021-12-09 06:14:47.4051 8=FIX.4.2 9=58 35=0 34=26 49=TRAFIX 52=20211209-06:14:47.402 56=JUSTETNA 10=071  
2021-12-09 06:14:48.4052 8=FIX.4.2 9=67 35=0 34=26 49=JUSTETNA 52=20211209-06:14:48.405 56=TRAFIX 128=LAMP 10=078  
2021-12-09 06:15:17.4028 8=FIX.4.2 9=58 35=0 34=27 49=TRAFIX 52=20211209-06:15:17.418 56=JUSTETNA 10=077  
2021-12-09 06:15:18.4062 8=FIX.4.2 9=67 35=0 34=27 49=JUSTETNA 52=20211209-06:15:18.406 56=TRAFIX 128=LAMP 10=078  
2021-12-09 06:15:47.4204 8=FIX.4.2 9=58 35=0 34=28 49=TRAFIX 52=20211209-06:15:47.432 56=JUSTETNA 10=077  
2021-12-09 06:15:48.4213 8=FIX.4.2 9=67 35=0 34=28 49=JUSTETNA 52=20211209-06:15:48.421 56=TRAFIX 128=LAMP 10=079  
2021-12-09 06:16:17.4423 8=FIX.4.2 9=58 35=0 34=29 49=TRAFIX 52=20211209-06:16:17.445 56=JUSTETNA 10=080  
2021-12-09 06:16:18.4454 8=FIX.4.2 9=67 35=0 34=29 49=JUSTETNA 52=20211209-06:16:18.445 56=TRAFIX 128=LAMP 10=084  
2021-12-09 06:16:47.4600 8=FIX.4.2 9=58 35=0 34=30 49=TRAFIX 52=20211209-06:16:47.462 56=JUSTETNA 10=074  
2021-12-09 06:16:48.4612 8=FIX.4.2 9=67 35=0 34=30 49=JUSTETNA 52=20211209-06:16:48.461 56=TRAFIX 128=LAMP 10=077  
2021-12-09 06:17:17.4778 8=FIX.4.2 9=58 35=0 34=31 49=TRAFIX 52=20211209-06:17:17.475 56=JUSTETNA 10=077  
2021-12-09 06:17:18.4805 8=FIX.4.2 9=67 35=0 34=31 49=JUSTETNA 52=20211209-06:17:18.480 56=TRAFIX 128=LAMP 10=077  
2021-12-09 06:17:47.4888 8=FIX.4.2 9=58 35=0 34=32 49=TRAFIX 52=20211209-06:17:47.490 56=JUSTETNA 10=078  
2021-12-09 06:17:48.5029 8=FIX.4.2 9=67 35=0 34=32 49=JUSTETNA 52=20211209-06:17:48.502 56=TRAFIX 128=LAMP 10=076  
2021-12-09 06:18:17.5230 8=FIX.4.2 9=58 35=0 34=33 49=TRAFIX 52=20211209-06:18:17.517 56=JUSTETNA 10=077  
2021-12-09 06:18:18.5260 8=FIX.4.2 9=67 35=0 34=33 49=JUSTETNA 52=20211209-06:18:18.526 56=TRAFIX 128=LAMP 10=081  
2021-12-09 06:18:47.5426 8=FIX.4.2 9=58 35=0 34=34 49=TRAFIX 52=20211209-06:18:47.536 56=JUSTETNA 10=082  
2021-12-09 06:18:48.5451 8=FIX.4.2 9=67 35=0 34=34 49=JUSTETNA 52=20211209-06:18:48.545 56=TRAFIX 128=LAMP 10=086  
2021-12-09 06:19:17.5551 8=FIX.4.2 9=58 35=0 34=35 49=TRAFIX 52=20211209-06:19:17.555 56=JUSTETNA 10=082  
2021-12-09 06:19:18.5590 8=FIX.4.2 9=67 35=0 34=35 49=JUSTETNA 52=20211209-06:19:18.559 56=TRAFIX 128=LAMP 10=090  
2021-12-09 06:19:47.5788 8=FIX.4.2 9=58 35=0 34=36 49=TRAFIX 52=20211209-06:19:47.570 56=JUSTETNA 10=083  
2021-12-09 06:19:48.5792 8=FIX.4.2 9=67 35=0 34=36 49=JUSTETNA 52=20211209-06:19:48.579 56=TRAFIX 128=LAMP 10=096  
2021-12-09 06:20:17.5896 8=FIX.4.2 9=58 35=0 34=37 49=TRAFIX 52=20211209-06:20:17.593 56=JUSTETNA 10=078  
2021-12-09 06:20:18.5921 8=FIX.4.2 9=67 35=0 34=37 49=JUSTETNA 52=20211209-06:20:18.592 56=TRAFIX 128=LAMP 10=081  
2021-12-09 06:20:47.5971 8=FIX.4.2 9=58 35=0 34=38 49=TRAFIX 52=20211209-06:20:47.600 56=JUSTETNA 10=071  
2021-12-09 06:20:48.5979 8=FIX.4.2 9=67 35=0 34=38 49=JUSTETNA 52=20211209-06:20:48.597 56=TRAFIX 128=LAMP 10=090  
2021-12-09 06:21:17.6070 8=FIX.4.2 9=58 35=0 34=39 49=TRAFIX 52=20211209-06:21:17.611 56=JUSTETNA 10=072  
2021-12-09 06:21:18.6158 8=FIX.4.2 9=67 35=0 34=39 49=JUSTETNA 52=20211209-06:21:18.615 56=TRAFIX 128=LAMP 10=080  
2021-12-09 06:21:47.6380 8=FIX.4.2 9=58 35=0 34=40 49=TRAFIX 52=20211209-06:21:47.630 56=JUSTETNA 10=068  
2021-12-09 06:21:48.6478 8=FIX.4.2 9=67 35=0 34=40 49=JUSTETNA 52=20211209-06:21:48.647 56=TRAFIX 128=LAMP 10=080  
2021-12-09 06:22:17.6571 8=FIX.4.2 9=58 35=0 34=41 49=TRAFIX 52=20211209-06:22:17.657 56=JUSTETNA 10=076  
2021-12-09 06:22:18.6634 8=FIX.4.2 9=67 35=0 34=41 49=JUSTETNA 52=20211209-06:22:18.663 56=TRAFIX 128=LAMP 10=077  
2021-12-09 06:22:47.6733 8=FIX.4.2 9=58 35=0 34=42 49=TRAFIX 52=20211209-06:22:47.674 56=JUSTETNA 10=079  
2021-12-09 06:22:48.6789 8=FIX.4.2 9=67 35=0 34=42 49=JUSTETNA 52=20211209-06:22:48.678 56=TRAFIX 128=LAMP 10=087  
2021-12-09 06:23:17.6960 8=FIX.4.2 9=58 35=0 34=43 49=TRAFIX 52=20211209-06:23:17.692 56=JUSTETNA 10=078  
2021-12-09 06:23:18.6993 8=FIX.4.2 9=67 35=0 34=43 49=JUSTETNA 52=20211209-06:23:18.699 56=TRAFIX 128=LAMP 10=089  
2021-12-09 06:23:47.7181 8=FIX.4.2 9=58 35=0 34=44 49=TRAFIX 52=20211209-06:23:47.713 56=JUSTETNA 10=076  
2021-12-09 06:23:48.7336 8=FIX.4.2 9=67 35=0 34=44 49=JUSTETNA 52=20211209-06:23:48.733 56=TRAFIX 128=LAMP 10=082  
2021-12-09 06:24:17.7471 8=FIX.4.2 9=58 35=0 34=45 49=TRAFIX 52=20211209-06:24:17.747 56=JUSTETNA 10=082  
2021-12-09 06:24:18.7505 8=FIX.4.2 9=67 35=0 34=45 49=JUSTETNA 52=20211209-06:24:18.750 56=TRAFIX 128=LAMP 10=080  
2021-12-09 06:24:47.7577 8=FIX.4.2 9=58 35=0 34=46 49=TRAFIX 52=20211209-06:24:47.764 56=JUSTETNA 10=085  
2021-12-09 06:24:48.7607 8=FIX.4.2 9=67 35=0 34=46 49=JUSTETNA 52=20211209-06:24:48.760 56=TRAFIX 128=LAMP 10=085  
2021-12-09 06:25:17.7826 8=FIX.4.2 9=58 35=0 34=47 49=TRAFIX 52=20211209-06:25:17.774 56=JUSTETNA 10=085  
2021-12-09 06:25:18.7862 8=FIX.4.2 9=67 35=0 34=47 49=JUSTETNA 52=20211209-06:25:18.786 56=TRAFIX 128=LAMP 10=092  
2021-12-09 06:25:47.8081 8=FIX.4.2 9=58 35=0 34=48 49=TRAFIX 52=20211209-06:25:47.799 56=JUSTETNA 10=096  
2021-12-09 06:25:48.8233 8=FIX.4.2 9=67 35=0 34=48 49=JUSTETNA 52=20211209-06:25:48.823 56=TRAFIX 128=LAMP 10=088  
2021-12-09 06:26:17.8313 8=FIX.4.2 9=58 35=0 34=49 49=TRAFIX 52=20211209-06:26:17.836 56=JUSTETNA 10=087  
2021-12-09 06:26:18.8338 8=FIX.4.2 9=67 35=0 34=49 49=JUSTETNA 52=20211209-06:26:18.833 56=TRAFIX 128=LAMP 10=088  
2021-12-09 06:26:47.8501 8=FIX.4.2 9=58 35=0 34=50 49=TRAFIX 52=20211209-06:26:47.843 56=JUSTETNA 10=080  
2021-12-09 06:26:48.8647 8=FIX.4.2 9=67 35=0 34=50 49=JUSTETNA 52=20211209-06:26:48.864 56=TRAFIX 128=LAMP 10=087  
2021-12-09 06:27:17.8748 8=FIX.4.2 9=58 35=0 34=51 49=TRAFIX 52=20211209-06:27:17.879 56=JUSTETNA 10=088  
2021-12-09 06:27:18.8779 8=FIX.4.2 9=67 35=0 34=51 49=JUSTETNA 52=20211209-06:27:18.877 56=TRAFIX 128=LAMP 10=090  
2021-12-09 06:27:47.8858 8=FIX.4.2 9=58 35=0 34=52 49=TRAFIX 52=20211209-06:27:47.889 56=JUSTETNA 10=093  
2021-12-09 06:27:48.9000 8=FIX.4.2 9=67 35=0 34=52 49=JUSTETNA 52=20211209-06:27:48.900 56=TRAFIX 128=LAMP 10=081  
2021-12-09 06:28:17.9195 8=FIX.4.2 9=58 35=0 34=53 49=TRAFIX 52=20211209-06:28:17.911 56=JUSTETNA 10=078  
2021-12-09 06:28:18.9223 8=FIX.4.2 9=67 35=0 34=53 49=JUSTETNA 52=20211209-06:28:18.922 56=TRAFIX 128=LAMP 10=084  
2021-12-09 06:28:47.9323 8=FIX.4.2 9=58 35=0 34=54 49=TRAFIX 52=20211209-06:28:47.938 56=JUSTETNA 10=091  
2021-12-09 06:28:48.9425 8=FIX.4.2 9=67 35=0 34=54 49=JUSTETNA 52=20211209-06:28:48.942 56=TRAFIX 128=LAMP 10=090  
2021-12-09 06:29:17.9529 8=FIX.4.2 9=58 35=0 34=55 49=TRAFIX 52=20211209-06:29:17.955 56=JUSTETNA 10=089  
2021-12-09 06:29:18.9567 8=FIX.4.2 9=67 35=0 34=55 49=JUSTETNA 52=20211209-06:29:18.956 56=TRAFIX 128=LAMP 10=094  
2021-12-09 06:29:47.9673 8=FIX.4.2 9=58 35=0 34=56 49=TRAFIX 52=20211209-06:29:47.967 56=JUSTETNA 10=096  
2021-12-09 06:29:48.9700 8=FIX.4.2 9=67 35=0 34=56 49=JUSTETNA 52=20211209-06:29:48.970 56=TRAFIX 128=LAMP 10=094  
2021-12-09 06:30:17.9865 8=FIX.4.2 9=58 35=0 34=57 49=TRAFIX 52=20211209-06:30:17.980 56=JUSTETNA 10=081  
2021-12-09 06:30:18.9891 8=FIX.4.2 9=67 35=0 34=57 49=JUSTETNA 52=20211209-06:30:18.989 56=TRAFIX 128=LAMP 10=094  
2021-12-09 06:30:47.0106 8=FIX.4.2 9=58 35=0 34=58 49=TRAFIX 52=20211209-06:30:47.002 56=JUSTETNA 10=070  
2021-12-09 06:30:49.0267 8=FIX.4.2 9=67 35=0 34=58 49=JUSTETNA 52=20211209-06:30:49.026 56=TRAFIX 128=LAMP 10=081  
2021-12-09 06:31:17.0458 8=FIX.4.2 9=58 35=0 34=59 49=TRAFIX 52=20211209-06:31:17.037 56=JUSTETNA 10=077  
2021-12-09 06:31:19.0638 8=FIX.4.2 9=67 35=0 34=59 49=JUSTETNA 52=20211209-06:31:19.063 56=TRAFIX 128=LAMP 10=081  
2021-12-09 06:31:47.0751 8=FIX.4.2 9=58 35=0 34=60 49=TRAFIX 52=20211209-06:31:47.075 56=JUSTETNA 10=074  
2021-12-09 06:31:49.0871 8=FIX.4.2 9=67 35=0 34=60 49=JUSTETNA 52=20211209-06:31:49.087 56=TRAFIX 128=LAMP 10=082  
2021-12-09 06:32:17.1086 8=FIX.4.2 9=58 35=0 34=61 49=TRAFIX 52=20211209-06:32:17.114 56=JUSTETNA 10=067  
2021-12-09 06:32:19.1174 8=FIX.4.2 9=67 35=0 34=61 49=JUSTETNA 52=20211209-06:32:19.117 56=TRAFIX 128=LAMP 10=075  
2021-12-09 06:32:47.1239 8=FIX.4.2 9=58 35=0 34=62 49=TRAFIX 52=20211209-06:32:47.128 56=JUSTETNA 10=076  
2021-12-09 06:32:49.1301 8=FIX.4.2 9=67 35=0 34=62 49=JUSTETNA 52=20211209-06:32:49.130 56=TRAFIX 128=LAMP 10=074  
2021-12-09 06:33:17.1486 8=FIX.4.2 9=58 35=0 34=63 49=TRAFIX 52=20211209-06:33:17.140 56=JUSTETNA 10=069  
2021-12-09 06:33:19.1517 8=FIX.4.2 9=67 35=0 34=63 49=JUSTETNA 52=20211209-06:33:19.151 56=TRAFIX 128=LAMP 10=076  
2021-12-09 06:33:47.1702 8=FIX.4.2 9=58 35=0 34=64 49=TRAFIX 52=20211209-06:33:47.165 56=JUSTETNA 10=080  
2021-12-09 06:33:49.1720 8=FIX.4.2 9=67 35=0 34=64 49=JUSTETNA 52=20211209-06:33:49.172 56=TRAFIX 128=LAMP 10=083  
2021-12-09 06:34:17.1856 8=FIX.4.2 9=58 35=0 34=65 49=TRAFIX 52=20211209-06:34:17.183 56=JUSTETNA 10=079  
2021-12-09 06:34:19.1935 8=FIX.4.2 9=67 35=0 34=65 49=JUSTETNA 52=20211209-06:34:19.193 56=TRAFIX 128=LAMP 10=085  
2021-12-09 06:34:47.2022 8=FIX.4.2 9=58 35=0 34=66 49=TRAFIX 52=20211209-06:34:47.207 56=JUSTETNA 10=080  
2021-12-09 06:34:49.2087 8=FIX.4.2 9=67 35=0 34=66 49=JUSTETNA 52=20211209-06:34:49.208 56=TRAFIX 128=LAMP 10=086  
2021-12-09 06:35:17.2194 8=FIX.4.2 9=58 35=0 34=67 49=TRAFIX 52=20211209-06:35:17.222 56=JUSTETNA 10=076  
2021-12-09 06:35:19.2393 8=FIX.4.2 9=67 35=0 34=67 49=JUSTETNA 52=20211209-06:35:19.239 56=TRAFIX 128=LAMP 10=089  
2021-12-09 06:35:47.2484 8=FIX.4.2 9=58 35=0 34=68 49=TRAFIX 52=20211209-06:35:47.252 56=JUSTETNA 10=083  
2021-12-09 06:35:49.2513 8=FIX.4.2 9=67 35=0 34=68 49=JUSTETNA 52=20211209-06:35:49.251 56=TRAFIX 128=LAMP 10=087  
2021-12-09 06:36:17.2693 8=FIX.4.2 9=58 35=0 34=69 49=TRAFIX 52=20211209-06:36:17.266 56=JUSTETNA 10=087  
2021-12-09 06:36:19.2843 8=FIX.4.2 9=67 35=0 34=69 49=JUSTETNA 52=20211209-06:36:19.284 56=TRAFIX 128=LAMP 10=092  
2021-12-09 06:36:47.3024 8=FIX.4.2 9=58 35=0 34=70 49=TRAFIX 52=20211209-06:36:47.296 56=JUSTETNA 10=085  
2021-12-09 06:36:49.3081 8=FIX.4.2 9=67 35=0 34=70 49=JUSTETNA 52=20211209-06:36:49.308 56=TRAFIX 128=LAMP 10=084  
2021-12-09 06:37:17.3186 8=FIX.4.2 9=58 35=0 34=71 49=TRAFIX 52=20211209-06:37:17.321 56=JUSTETNA 10=073  
2021-12-09 06:37:19.3337 8=FIX.4.2 9=67 35=0 34=71 49=JUSTETNA 52=20211209-06:37:19.333 56=TRAFIX 128=LAMP 10=081  
2021-12-09 06:37:47.3450 8=FIX.4.2 9=58 35=0 34=72 49=TRAFIX 52=20211209-06:37:47.345 56=JUSTETNA 10=083  
2021-12-09 06:37:49.3507 8=FIX.4.2 9=67 35=0 34=72 49=JUSTETNA 52=20211209-06:37:49.350 56=TRAFIX 128=LAMP 10=084  
2021-12-09 06:38:17.3628 8=FIX.4.2 9=58 35=0 34=73 49=TRAFIX 52=20211209-06:38:17.365 56=JUSTETNA 10=084  
2021-12-09 06:38:19.3720 8=FIX.4.2 9=67 35=0 34=73 49=JUSTETNA 52=20211209-06:38:19.372 56=TRAFIX 128=LAMP 10=087  
2021-12-09 06:38:47.3830 8=FIX.4.2 9=58 35=0 34=74 49=TRAFIX 52=20211209-06:38:47.387 56=JUSTETNA 10=092  
2021-12-09 06:38:49.4044 8=FIX.4.2 9=67 35=0 34=74 49=JUSTETNA 52=20211209-06:38:49.404 56=TRAFIX 128=LAMP 10=087  
2021-12-09 06:39:17.4241 8=FIX.4.2 9=58 35=0 34=75 49=TRAFIX 52=20211209-06:39:17.417 56=JUSTETNA 10=085  
2021-12-09 06:39:19.4306 8=FIX.4.2 9=67 35=0 34=75 49=JUSTETNA 52=20211209-06:39:19.430 56=TRAFIX 128=LAMP 10=085  
2021-12-09 06:39:47.4399 8=FIX.4.2 9=58 35=0 34=76 49=TRAFIX 52=20211209-06:39:47.443 56=JUSTETNA 10=088  
2021-12-09 06:39:49.4527 8=FIX.4.2 9=67 35=0 34=76 49=JUSTETNA 52=20211209-06:39:49.452 56=TRAFIX 128=LAMP 10=093  
2021-12-09 06:40:17.4677 8=FIX.4.2 9=58 35=0 34=77 49=TRAFIX 52=20211209-06:40:17.464 56=JUSTETNA 10=081  
2021-12-09 06:40:19.4809 8=FIX.4.2 9=67 35=0 34=77 49=JUSTETNA 52=20211209-06:40:19.480 56=TRAFIX 128=LAMP 10=084  
2021-12-09 06:40:47.5037 8=FIX.4.2 9=58 35=0 34=78 49=TRAFIX 52=20211209-06:40:47.496 56=JUSTETNA 10=090  
2021-12-09 06:40:49.5133 8=FIX.4.2 9=67 35=0 34=78 49=JUSTETNA 52=20211209-06:40:49.513 56=TRAFIX 128=LAMP 10=085  
2021-12-09 06:41:17.5181 8=FIX.4.2 9=58 35=0 34=79 49=TRAFIX 52=20211209-06:41:17.524 56=JUSTETNA 10=081  
2021-12-09 06:41:19.5254 8=FIX.4.2 9=67 35=0 34=79 49=JUSTETNA 52=20211209-06:41:19.525 56=TRAFIX 128=LAMP 10=087  
2021-12-09 06:41:47.5398 8=FIX.4.2 9=58 35=0 34=80 49=TRAFIX 52=20211209-06:41:47.538 56=JUSTETNA 10=081  
2021-12-09 06:41:49.5586 8=FIX.4.2 9=67 35=0 34=80 49=JUSTETNA 52=20211209-06:41:49.558 56=TRAFIX 128=LAMP 10=088  
2021-12-09 06:42:17.5655 8=FIX.4.2 9=58 35=0 34=81 49=TRAFIX 52=20211209-06:42:17.572 56=JUSTETNA 10=078  
2021-12-09 06:42:19.5742 8=FIX.4.2 9=67 35=0 34=81 49=JUSTETNA 52=20211209-06:42:19.574 56=TRAFIX 128=LAMP 10=085  
2021-12-09 06:42:47.5897 8=FIX.4.2 9=58 35=0 34=82 49=TRAFIX 52=20211209-06:42:47.589 56=JUSTETNA 10=090  
2021-12-09 06:42:49.6009 8=FIX.4.2 9=67 35=0 34=82 49=JUSTETNA 52=20211209-06:42:49.600 56=TRAFIX 128=LAMP 10=079  
2021-12-09 06:43:17.6140 8=FIX.4.2 9=58 35=0 34=83 49=TRAFIX 52=20211209-06:43:17.616 56=JUSTETNA 10=080  
2021-12-09 06:43:19.6213 8=FIX.4.2 9=67 35=0 34=83 49=JUSTETNA 52=20211209-06:43:19.621 56=TRAFIX 128=LAMP 10=081  
2021-12-09 06:43:47.6493 8=FIX.4.2 9=58 35=0 34=84 49=TRAFIX 52=20211209-06:43:47.635 56=JUSTETNA 10=085  
2021-12-09 06:43:49.6639 8=FIX.4.2 9=67 35=0 34=84 49=JUSTETNA 52=20211209-06:43:49.663 56=TRAFIX 128=LAMP 10=091  
2021-12-09 06:44:17.6795 8=FIX.4.2 9=58 35=0 34=85 49=TRAFIX 52=20211209-06:44:17.674 56=JUSTETNA 10=087  
2021-12-09 06:44:19.6882 8=FIX.4.2 9=67 35=0 34=85 49=JUSTETNA 52=20211209-06:44:19.688 56=TRAFIX 128=LAMP 10=097  
2021-12-09 06:44:47.7013 8=FIX.4.2 9=58 35=0 34=86 49=TRAFIX 52=20211209-06:44:47.702 56=JUSTETNA 10=083  
2021-12-09 06:44:49.7067 8=FIX.4.2 9=67 35=0 34=86 49=JUSTETNA 52=20211209-06:44:49.706 56=TRAFIX 128=LAMP 10=092  
2021-12-09 06:45:17.7145 8=FIX.4.2 9=58 35=0 34=87 49=TRAFIX 52=20211209-06:45:17.719 56=JUSTETNA 10=090  
2021-12-09 06:45:19.7238 8=FIX.4.2 9=67 35=0 34=87 49=JUSTETNA 52=20211209-06:45:19.723 56=TRAFIX 128=LAMP 10=090  
2021-12-09 06:45:47.7328 8=FIX.4.2 9=58 35=0 34=88 49=TRAFIX 52=20211209-06:45:47.734 56=JUSTETNA 10=091  
2021-12-09 06:45:49.7596 8=FIX.4.2 9=67 35=0 34=88 49=JUSTETNA 52=20211209-06:45:49.759 56=TRAFIX 128=LAMP 10=103  
2021-12-09 06:46:17.7726 8=FIX.4.2 9=58 35=0 34=89 49=TRAFIX 52=20211209-06:46:17.770 56=JUSTETNA 10=090  
2021-12-09 06:46:19.7820 8=FIX.4.2 9=67 35=0 34=89 49=JUSTETNA 52=20211209-06:46:19.782 56=TRAFIX 128=LAMP 10=098  
2021-12-09 06:46:47.7974 8=FIX.4.2 9=58 35=0 34=90 49=TRAFIX 52=20211209-06:46:47.796 56=JUSTETNA 10=093  
2021-12-09 06:46:49.8161 8=FIX.4.2 9=67 35=0 34=90 49=JUSTETNA 52=20211209-06:46:49.816 56=TRAFIX 128=LAMP 10=091  
2021-12-09 06:47:17.8377 8=FIX.4.2 9=58 35=0 34=91 49=TRAFIX 52=20211209-06:47:17.830 56=JUSTETNA 10=081  
2021-12-09 06:47:19.8479 8=FIX.4.2 9=67 35=0 34=91 49=JUSTETNA 52=20211209-06:47:19.847 56=TRAFIX 128=LAMP 10=094  
2021-12-09 06:47:47.8605 8=FIX.4.2 9=58 35=0 34=92 49=TRAFIX 52=20211209-06:47:47.858 56=JUSTETNA 10=095  
2021-12-09 06:47:49.8690 8=FIX.4.2 9=67 35=0 34=92 49=JUSTETNA 52=20211209-06:47:49.869 56=TRAFIX 128=LAMP 10=102  
2021-12-09 06:48:17.8859 8=FIX.4.2 9=58 35=0 34=93 49=TRAFIX 52=20211209-06:48:17.881 56=JUSTETNA 10=090  
2021-12-09 06:48:19.8943 8=FIX.4.2 9=67 35=0 34=93 49=JUSTETNA 52=20211209-06:48:19.894 56=TRAFIX 128=LAMP 10=099  
2021-12-09 06:48:47.9142 8=FIX.4.2 9=58 35=0 34=94 49=TRAFIX 52=20211209-06:48:47.908 56=JUSTETNA 10=094  
2021-12-09 06:48:49.9369 8=FIX.4.2 9=67 35=0 34=94 49=JUSTETNA 52=20211209-06:48:49.936 56=TRAFIX 128=LAMP 10=100  
2021-12-09 06:49:17.9487 8=FIX.4.2 9=58 35=0 34=95 49=TRAFIX 52=20211209-06:49:17.951 56=JUSTETNA 10=091  
2021-12-09 06:49:19.9577 8=FIX.4.2 9=67 35=0 34=95 49=JUSTETNA 52=20211209-06:49:19.957 56=TRAFIX 128=LAMP 10=102  
2021-12-09 06:49:47.9811 8=FIX.4.2 9=58 35=0 34=96 49=TRAFIX 52=20211209-06:49:47.973 56=JUSTETNA 10=099  
2021-12-09 06:49:49.9852 8=FIX.4.2 9=67 35=0 34=96 49=JUSTETNA 52=20211209-06:49:49.984 56=TRAFIX 128=LAMP 10=106  
2021-12-09 06:50:17.9951 8=FIX.4.2 9=58 35=0 34=97 49=TRAFIX 52=20211209-06:50:17.997 56=JUSTETNA 10=095  
2021-12-09 06:50:20.0003 8=FIX.4.2 9=67 35=0 34=97 49=JUSTETNA 52=20211209-06:50:20.000 56=TRAFIX 128=LAMP 10=067  
2021-12-09 06:50:47.0198 8=FIX.4.2 9=58 35=0 34=98 49=TRAFIX 52=20211209-06:50:47.013 56=JUSTETNA 10=078  
2021-12-09 06:50:50.0493 8=FIX.4.2 9=67 35=0 34=98 49=JUSTETNA 52=20211209-06:50:50.049 56=TRAFIX 128=LAMP 10=084  
2021-12-09 06:51:17.0572 8=FIX.4.2 9=58 35=0 34=99 49=TRAFIX 52=20211209-06:51:17.062 56=JUSTETNA 10=081  
2021-12-09 06:51:20.0892 8=FIX.4.2 9=67 35=0 34=99 49=JUSTETNA 52=20211209-06:51:20.089 56=TRAFIX 128=LAMP 10=087  
2021-12-09 06:51:47.1009 8=FIX.4.2 9=59 35=0 34=100 49=TRAFIX 52=20211209-06:51:47.102 56=JUSTETNA 10=111  
2021-12-09 06:51:50.1294 8=FIX.4.2 9=68 35=0 34=100 49=JUSTETNA 52=20211209-06:51:50.129 56=TRAFIX 128=LAMP 10=117  
2021-12-09 06:52:17.1480 8=FIX.4.2 9=59 35=0 34=101 49=TRAFIX 52=20211209-06:52:17.141 56=JUSTETNA 10=113  
2021-12-09 06:52:20.1753 8=FIX.4.2 9=68 35=0 34=101 49=JUSTETNA 52=20211209-06:52:20.175 56=TRAFIX 128=LAMP 10=117  
2021-12-09 06:52:47.1838 8=FIX.4.2 9=59 35=0 34=102 49=TRAFIX 52=20211209-06:52:47.187 56=JUSTETNA 10=127  
2021-12-09 06:52:50.1865 8=FIX.4.2 9=68 35=0 34=102 49=JUSTETNA 52=20211209-06:52:50.186 56=TRAFIX 128=LAMP 10=123  
2021-12-09 06:53:17.1968 8=FIX.4.2 9=59 35=0 34=103 49=TRAFIX 52=20211209-06:53:17.197 56=JUSTETNA 10=127  
2021-12-09 06:53:20.2082 8=FIX.4.2 9=68 35=0 34=103 49=JUSTETNA 52=20211209-06:53:20.208 56=TRAFIX 128=LAMP 10=117  
2021-12-09 06:53:47.2254 8=FIX.4.2 9=59 35=0 34=104 49=TRAFIX 52=20211209-06:53:47.225 56=JUSTETNA 10=123  
2021-12-09 06:53:50.2468 8=FIX.4.2 9=68 35=0 34=104 49=JUSTETNA 52=20211209-06:53:50.246 56=TRAFIX 128=LAMP 10=123  
2021-12-09 06:54:17.2572 8=FIX.4.2 9=59 35=0 34=105 49=TRAFIX 52=20211209-06:54:17.261 56=JUSTETNA 10=122  
2021-12-09 06:54:20.2782 8=FIX.4.2 9=68 35=0 34=105 49=JUSTETNA 52=20211209-06:54:20.278 56=TRAFIX 128=LAMP 10=127  
2021-12-09 06:54:47.2905 8=FIX.4.2 9=59 35=0 34=106 49=TRAFIX 52=20211209-06:54:47.292 56=JUSTETNA 10=130  
2021-12-09 06:54:50.3002 8=FIX.4.2 9=68 35=0 34=106 49=JUSTETNA 52=20211209-06:54:50.300 56=TRAFIX 128=LAMP 10=117  
2021-12-09 06:55:17.3058 8=FIX.4.2 9=59 35=0 34=107 49=TRAFIX 52=20211209-06:55:17.311 56=JUSTETNA 10=121  
2021-12-09 06:55:20.3182 8=FIX.4.2 9=68 35=0 34=107 49=JUSTETNA 52=20211209-06:55:20.318 56=TRAFIX 128=LAMP 10=125  
2021-12-09 06:55:47.3371 8=FIX.4.2 9=59 35=0 34=108 49=TRAFIX 52=20211209-06:55:47.330 56=JUSTETNA 10=126  
2021-12-09 06:55:50.3591 8=FIX.4.2 9=68 35=0 34=108 49=JUSTETNA 52=20211209-06:55:50.359 56=TRAFIX 128=LAMP 10=134  
2021-12-09 06:56:17.3806 8=FIX.4.2 9=59 35=0 34=109 49=TRAFIX 52=20211209-06:56:17.374 56=JUSTETNA 10=133  
2021-12-09 06:56:20.3917 8=FIX.4.2 9=68 35=0 34=109 49=JUSTETNA 52=20211209-06:56:20.391 56=TRAFIX 128=LAMP 10=129  
2021-12-09 06:56:47.4048 8=FIX.4.2 9=59 35=0 34=110 49=TRAFIX 52=20211209-06:56:47.408 56=JUSTETNA 10=126  
2021-12-09 06:56:50.4210 8=FIX.4.2 9=68 35=0 34=110 49=JUSTETNA 52=20211209-06:56:50.421 56=TRAFIX 128=LAMP 10=118  
2021-12-09 06:57:17.4322 8=FIX.4.2 9=59 35=0 34=111 49=TRAFIX 52=20211209-06:57:17.435 56=JUSTETNA 10=125  
2021-12-09 06:57:20.4490 8=FIX.4.2 9=68 35=0 34=111 49=JUSTETNA 52=20211209-06:57:20.449 56=TRAFIX 128=LAMP 10=127  
2021-12-09 06:57:47.4703 8=FIX.4.2 9=59 35=0 34=112 49=TRAFIX 52=20211209-06:57:47.464 56=JUSTETNA 10=131  
2021-12-09 06:57:50.5000 8=FIX.4.2 9=68 35=0 34=112 49=JUSTETNA 52=20211209-06:57:50.500 56=TRAFIX 128=LAMP 10=119  
2021-12-09 06:58:17.5108 8=FIX.4.2 9=59 35=0 34=113 49=TRAFIX 52=20211209-06:58:17.513 56=JUSTETNA 10=125  
2021-12-09 06:58:20.5233 8=FIX.4.2 9=68 35=0 34=113 49=JUSTETNA 52=20211209-06:58:20.523 56=TRAFIX 128=LAMP 10=123  
2021-12-09 06:58:47.5322 8=FIX.4.2 9=59 35=0 34=114 49=TRAFIX 52=20211209-06:58:47.538 56=JUSTETNA 10=136  
2021-12-09 06:58:50.5571 8=FIX.4.2 9=68 35=0 34=114 49=JUSTETNA 52=20211209-06:58:50.557 56=TRAFIX 128=LAMP 10=134  
2021-12-09 06:59:17.5610 8=FIX.4.2 9=59 35=0 34=115 49=TRAFIX 52=20211209-06:59:17.569 56=JUSTETNA 10=139  
2021-12-09 06:59:20.5724 8=FIX.4.2 9=68 35=0 34=115 49=JUSTETNA 52=20211209-06:59:20.572 56=TRAFIX 128=LAMP 10=130  
2021-12-09 06:59:47.5815 8=FIX.4.2 9=59 35=0 34=116 49=TRAFIX 52=20211209-06:59:47.584 56=JUSTETNA 10=140  
2021-12-09 06:59:50.5905 8=FIX.4.2 9=68 35=0 34=116 49=JUSTETNA 52=20211209-06:59:50.590 56=TRAFIX 128=LAMP 10=134  
2021-12-09 07:00:17.6083 8=FIX.4.2 9=59 35=0 34=117 49=TRAFIX 52=20211209-07:00:17.604 56=JUSTETNA 10=118  
2021-12-09 07:00:20.6168 8=FIX.4.2 9=68 35=0 34=117 49=JUSTETNA 52=20211209-07:00:20.616 56=TRAFIX 128=LAMP 10=118  
2021-12-09 07:00:47.6341 8=FIX.4.2 9=59 35=0 34=118 49=TRAFIX 52=20211209-07:00:47.629 56=JUSTETNA 10=129  
2021-12-09 07:00:50.6647 8=FIX.4.2 9=68 35=0 34=118 49=JUSTETNA 52=20211209-07:00:50.664 56=TRAFIX 128=LAMP 10=125  
2021-12-09 07:01:17.6805 8=FIX.4.2 9=59 35=0 34=119 49=TRAFIX 52=20211209-07:01:17.676 56=JUSTETNA 10=130  
2021-12-09 07:01:20.7020 8=FIX.4.2 9=68 35=0 34=119 49=JUSTETNA 52=20211209-07:01:20.702 56=TRAFIX 128=LAMP 10=117  
2021-12-09 07:01:47.7127 8=FIX.4.2 9=59 35=0 34=120 49=TRAFIX 52=20211209-07:01:47.715 56=JUSTETNA 10=119  
2021-12-09 07:01:50.7384 8=FIX.4.2 9=68 35=0 34=120 49=JUSTETNA 52=20211209-07:01:50.738 56=TRAFIX 128=LAMP 10=121  
2021-12-09 07:02:17.7554 8=FIX.4.2 9=59 35=0 34=121 49=TRAFIX 52=20211209-07:02:17.752 56=JUSTETNA 10=119  
2021-12-09 07:02:20.7680 8=FIX.4.2 9=68 35=0 34=121 49=JUSTETNA 52=20211209-07:02:20.768 56=TRAFIX 128=LAMP 10=123  
2021-12-09 07:02:47.7735 8=FIX.4.2 9=59 35=0 34=122 49=TRAFIX 52=20211209-07:02:47.781 56=JUSTETNA 10=125  
2021-12-09 07:02:50.7948 8=FIX.4.2 9=68 35=0 34=122 49=JUSTETNA 52=20211209-07:02:50.794 56=TRAFIX 128=LAMP 10=126  
2021-12-09 07:03:17.8109 8=FIX.4.2 9=59 35=0 34=123 49=TRAFIX 52=20211209-07:03:17.807 56=JUSTETNA 10=123  
2021-12-09 07:03:20.8213 8=FIX.4.2 9=68 35=0 34=123 49=JUSTETNA 52=20211209-07:03:20.821 56=TRAFIX 128=LAMP 10=116  
2021-12-09 07:03:47.8390 8=FIX.4.2 9=59 35=0 34=124 49=TRAFIX 52=20211209-07:03:47.835 56=JUSTETNA 10=128  
2021-12-09 07:03:50.8749 8=FIX.4.2 9=68 35=0 34=124 49=JUSTETNA 52=20211209-07:03:50.874 56=TRAFIX 128=LAMP 10=128  
2021-12-09 07:04:17.8801 8=FIX.4.2 9=59 35=0 34=125 49=TRAFIX 52=20211209-07:04:17.887 56=JUSTETNA 10=134  
2021-12-09 07:04:20.8958 8=FIX.4.2 9=68 35=0 34=125 49=JUSTETNA 52=20211209-07:04:20.895 56=TRAFIX 128=LAMP 10=130  
2021-12-09 07:04:47.9140 8=FIX.4.2 9=59 35=0 34=126 49=TRAFIX 52=20211209-07:04:47.910 56=JUSTETNA 10=125  
2021-12-09 07:04:50.9216 8=FIX.4.2 9=68 35=0 34=126 49=JUSTETNA 52=20211209-07:04:50.921 56=TRAFIX 128=LAMP 10=124  
2021-12-09 07:05:17.9377 8=FIX.4.2 9=59 35=0 34=127 49=TRAFIX 52=20211209-07:05:17.935 56=JUSTETNA 10=131  
2021-12-09 07:05:20.9489 8=FIX.4.2 9=68 35=0 34=127 49=JUSTETNA 52=20211209-07:05:20.948 56=TRAFIX 128=LAMP 10=132  
2021-12-09 07:05:47.9622 8=FIX.4.2 9=59 35=0 34=128 49=TRAFIX 52=20211209-07:05:47.962 56=JUSTETNA 10=135  
2021-12-09 07:05:50.9873 8=FIX.4.2 9=68 35=0 34=128 49=JUSTETNA 52=20211209-07:05:50.987 56=TRAFIX 128=LAMP 10=139  
2021-12-09 07:06:18.0026 8=FIX.4.2 9=59 35=0 34=129 49=TRAFIX 52=20211209-07:06:17.999 56=JUSTETNA 10=144  
2021-12-09 07:06:21.0140 8=FIX.4.2 9=68 35=0 34=129 49=JUSTETNA 52=20211209-07:06:21.014 56=TRAFIX 128=LAMP 10=120  
2021-12-09 07:06:47.0347 8=FIX.4.2 9=59 35=0 34=130 49=TRAFIX 52=20211209-07:06:47.028 56=JUSTETNA 10=122  
2021-12-09 07:06:51.0578 8=FIX.4.2 9=68 35=0 34=130 49=JUSTETNA 52=20211209-07:06:51.057 56=TRAFIX 128=LAMP 10=122  
2021-12-09 07:07:17.0604 8=FIX.4.2 9=59 35=0 34=131 49=TRAFIX 52=20211209-07:07:17.069 56=JUSTETNA 10=126  
2021-12-09 07:07:21.0973 8=FIX.4.2 9=68 35=0 34=131 49=JUSTETNA 52=20211209-07:07:21.097 56=TRAFIX 128=LAMP 10=125  
2021-12-09 07:07:47.1095 8=FIX.4.2 9=59 35=0 34=132 49=TRAFIX 52=20211209-07:07:47.109 56=JUSTETNA 10=125  
2021-12-09 07:07:51.1322 8=FIX.4.2 9=68 35=0 34=132 49=JUSTETNA 52=20211209-07:07:51.132 56=TRAFIX 128=LAMP 10=119  
2021-12-09 07:08:17.1410 8=FIX.4.2 9=59 35=0 34=133 49=TRAFIX 52=20211209-07:08:17.144 56=JUSTETNA 10=123  
2021-12-09 07:08:21.1571 8=FIX.4.2 9=68 35=0 34=133 49=JUSTETNA 52=20211209-07:08:21.157 56=TRAFIX 128=LAMP 10=125  
2021-12-09 07:08:47.1620 8=FIX.4.2 9=59 35=0 34=134 49=TRAFIX 52=20211209-07:08:47.169 56=JUSTETNA 10=134  
2021-12-09 07:08:51.1880 8=FIX.4.2 9=68 35=0 34=134 49=JUSTETNA 52=20211209-07:08:51.188 56=TRAFIX 128=LAMP 10=133  
2021-12-09 07:09:17.2028 8=FIX.4.2 9=59 35=0 34=135 49=TRAFIX 52=20211209-07:09:17.199 56=JUSTETNA 10=136  
2021-12-09 07:09:21.2210 8=FIX.4.2 9=68 35=0 34=135 49=JUSTETNA 52=20211209-07:09:21.221 56=TRAFIX 128=LAMP 10=120  
2021-12-09 07:09:47.2299 8=FIX.4.2 9=59 35=0 34=136 49=TRAFIX 52=20211209-07:09:47.232 56=JUSTETNA 10=128  
2021-12-09 07:09:51.2515 8=FIX.4.2 9=68 35=0 34=136 49=JUSTETNA 52=20211209-07:09:51.251 56=TRAFIX 128=LAMP 10=127  
2021-12-09 07:10:17.2647 8=FIX.4.2 9=59 35=0 34=137 49=TRAFIX 52=20211209-07:10:17.262 56=JUSTETNA 10=121  
2021-12-09 07:10:21.2799 8=FIX.4.2 9=68 35=0 34=137 49=JUSTETNA 52=20211209-07:10:21.279 56=TRAFIX 128=LAMP 10=127  
2021-12-09 07:10:47.3017 8=FIX.4.2 9=59 35=0 34=138 49=TRAFIX 52=20211209-07:10:47.295 56=JUSTETNA 10=131  
2021-12-09 07:10:51.3190 8=FIX.4.2 9=68 35=0 34=138 49=JUSTETNA 52=20211209-07:10:51.319 56=TRAFIX 128=LAMP 10=126  
2021-12-09 07:11:17.3283 8=FIX.4.2 9=59 35=0 34=139 49=TRAFIX 52=20211209-07:11:17.333 56=JUSTETNA 10=123  
2021-12-09 07:11:21.3535 8=FIX.4.2 9=68 35=0 34=139 49=JUSTETNA 52=20211209-07:11:21.353 56=TRAFIX 128=LAMP 10=123  
2021-12-09 07:11:47.3677 8=FIX.4.2 9=59 35=0 34=140 49=TRAFIX 52=20211209-07:11:47.366 56=JUSTETNA 10=124  
2021-12-09 07:11:51.3986 8=FIX.4.2 9=68 35=0 34=140 49=JUSTETNA 52=20211209-07:11:51.398 56=TRAFIX 128=LAMP 10=127  
2021-12-09 07:12:17.4050 8=FIX.4.2 9=59 35=0 34=141 49=TRAFIX 52=20211209-07:12:17.409 56=JUSTETNA 10=121  
2021-12-09 07:12:21.4174 8=FIX.4.2 9=68 35=0 34=141 49=JUSTETNA 52=20211209-07:12:21.417 56=TRAFIX 128=LAMP 10=118  
2021-12-09 07:12:47.4204 8=FIX.4.2 9=59 35=0 34=142 49=TRAFIX 52=20211209-07:12:47.427 56=JUSTETNA 10=125  
2021-12-09 07:12:51.4543 8=FIX.4.2 9=68 35=0 34=142 49=JUSTETNA 52=20211209-07:12:51.454 56=TRAFIX 128=LAMP 10=123  
2021-12-09 07:13:17.4700 8=FIX.4.2 9=59 35=0 34=143 49=TRAFIX 52=20211209-07:13:17.469 56=JUSTETNA 10=130  
2021-12-09 07:13:21.5032 8=FIX.4.2 9=68 35=0 34=143 49=JUSTETNA 52=20211209-07:13:21.503 56=TRAFIX 128=LAMP 10=117  
2021-12-09 07:13:47.5218 8=FIX.4.2 9=59 35=0 34=144 49=TRAFIX 52=20211209-07:13:47.516 56=JUSTETNA 10=127  
2021-12-09 07:13:51.5548 8=FIX.4.2 9=68 35=0 34=144 49=JUSTETNA 52=20211209-07:13:51.554 56=TRAFIX 128=LAMP 10=127  
2021-12-09 07:14:17.5640 8=FIX.4.2 9=59 35=0 34=145 49=TRAFIX 52=20211209-07:14:17.566 56=JUSTETNA 10=131  
2021-12-09 07:14:21.5952 8=FIX.4.2 9=68 35=0 34=145 49=JUSTETNA 52=20211209-07:14:21.595 56=TRAFIX 128=LAMP 10=131  
2021-12-09 07:14:47.5971 8=FIX.4.2 9=59 35=0 34=146 49=TRAFIX 52=20211209-07:14:47.605 56=JUSTETNA 10=129  
2021-12-09 07:14:51.6183 8=FIX.4.2 9=68 35=0 34=146 49=JUSTETNA 52=20211209-07:14:51.618 56=TRAFIX 128=LAMP 10=131  
2021-12-09 07:15:17.6118 8=FIX.4.2 9=59 35=0 34=147 49=TRAFIX 52=20211209-07:15:17.628 56=JUSTETNA 10=133  
2021-12-09 07:15:21.6197 8=FIX.4.2 9=68 35=0 34=147 49=JUSTETNA 52=20211209-07:15:21.619 56=TRAFIX 128=LAMP 10=131  
2021-12-09 07:15:47.6354 8=FIX.4.2 9=59 35=0 34=148 49=TRAFIX 52=20211209-07:15:47.638 56=JUSTETNA 10=138  
2021-12-09 07:15:51.6600 8=FIX.4.2 9=68 35=0 34=148 49=JUSTETNA 52=20211209-07:15:51.660 56=TRAFIX 128=LAMP 10=131  
2021-12-09 07:16:17.6685 8=FIX.4.2 9=59 35=0 34=149 49=TRAFIX 52=20211209-07:16:17.679 56=JUSTETNA 10=142  
2021-12-09 07:16:21.6844 8=FIX.4.2 9=68 35=0 34=149 49=JUSTETNA 52=20211209-07:16:21.684 56=TRAFIX 128=LAMP 10=136  
2021-12-09 07:16:47.7004 8=FIX.4.2 9=59 35=0 34=150 49=TRAFIX 52=20211209-07:16:47.697 56=JUSTETNA 10=137  
2021-12-09 07:16:51.7172 8=FIX.4.2 9=68 35=0 34=150 49=JUSTETNA 52=20211209-07:16:51.717 56=TRAFIX 128=LAMP 10=128  
2021-12-09 07:17:17.7260 8=FIX.4.2 9=59 35=0 34=151 49=TRAFIX 52=20211209-07:17:17.730 56=JUSTETNA 10=124  
2021-12-09 07:17:21.7426 8=FIX.4.2 9=68 35=0 34=151 49=JUSTETNA 52=20211209-07:17:21.742 56=TRAFIX 128=LAMP 10=125  
2021-12-09 07:17:47.7483 8=FIX.4.2 9=59 35=0 34=152 49=TRAFIX 52=20211209-07:17:47.754 56=JUSTETNA 10=134  
2021-12-09 07:17:51.7658 8=FIX.4.2 9=68 35=0 34=152 49=JUSTETNA 52=20211209-07:17:51.765 56=TRAFIX 128=LAMP 10=134  
2021-12-09 07:18:17.7720 8=FIX.4.2 9=59 35=0 34=153 49=TRAFIX 52=20211209-07:18:17.778 56=JUSTETNA 10=139  
2021-12-09 07:18:21.7893 8=FIX.4.2 9=68 35=0 34=153 49=JUSTETNA 52=20211209-07:18:21.789 56=TRAFIX 128=LAMP 10=139  
2021-12-09 07:18:47.8056 8=FIX.4.2 9=59 35=0 34=154 49=TRAFIX 52=20211209-07:18:47.802 56=JUSTETNA 10=131  
2021-12-09 07:18:51.8251 8=FIX.4.2 9=68 35=0 34=154 49=JUSTETNA 52=20211209-07:18:51.825 56=TRAFIX 128=LAMP 10=134  
2021-12-09 07:19:17.8373 8=FIX.4.2 9=59 35=0 34=155 49=TRAFIX 52=20211209-07:19:17.838 56=JUSTETNA 10=139  
2021-12-09 07:19:21.8657 8=FIX.4.2 9=68 35=0 34=155 49=JUSTETNA 52=20211209-07:19:21.865 56=TRAFIX 128=LAMP 10=137  
2021-12-09 07:19:47.8862 8=FIX.4.2 9=59 35=0 34=156 49=TRAFIX 52=20211209-07:19:47.881 56=JUSTETNA 10=141  
2021-12-09 07:19:51.9075 8=FIX.4.2 9=68 35=0 34=156 49=JUSTETNA 52=20211209-07:19:51.907 56=TRAFIX 128=LAMP 10=138  
2021-12-09 07:20:17.9232 8=FIX.4.2 9=59 35=0 34=157 49=TRAFIX 52=20211209-07:20:17.920 56=JUSTETNA 10=125  
2021-12-09 07:20:21.9374 8=FIX.4.2 9=68 35=0 34=157 49=JUSTETNA 52=20211209-07:20:21.937 56=TRAFIX 128=LAMP 10=131  
2021-12-09 07:20:47.9496 8=FIX.4.2 9=59 35=0 34=158 49=TRAFIX 52=20211209-07:20:47.951 56=JUSTETNA 10=133  
2021-12-09 07:20:51.9720 8=FIX.4.2 9=68 35=0 34=158 49=JUSTETNA 52=20211209-07:20:51.972 56=TRAFIX 128=LAMP 10=134  
2021-12-09 07:21:17.9859 8=FIX.4.2 9=59 35=0 34=159 49=TRAFIX 52=20211209-07:21:17.983 56=JUSTETNA 10=137  
2021-12-09 07:21:21.9994 8=FIX.4.2 9=68 35=0 34=159 49=JUSTETNA 52=20211209-07:21:21.999 56=TRAFIX 128=LAMP 10=142  
2021-12-09 07:21:47.0084 8=FIX.4.2 9=59 35=0 34=160 49=TRAFIX 52=20211209-07:21:47.012 56=JUSTETNA 10=115  
2021-12-09 07:21:52.0437 8=FIX.4.2 9=68 35=0 34=160 49=JUSTETNA 52=20211209-07:21:52.043 56=TRAFIX 128=LAMP 10=118  
2021-12-09 07:22:17.0449 8=FIX.4.2 9=59 35=0 34=161 49=TRAFIX 52=20211209-07:22:17.052 56=JUSTETNA 10=118  
2021-12-09 07:22:22.0682 8=FIX.4.2 9=68 35=0 34=161 49=JUSTETNA 52=20211209-07:22:22.068 56=TRAFIX 128=LAMP 10=124  
2021-12-09 07:22:47.0753 8=FIX.4.2 9=59 35=0 34=162 49=TRAFIX 52=20211209-07:22:47.081 56=JUSTETNA 10=124  
2021-12-09 07:22:52.1004 8=FIX.4.2 9=68 35=0 34=162 49=JUSTETNA 52=20211209-07:22:52.100 56=TRAFIX 128=LAMP 10=115  
2021-12-09 07:23:17.1106 8=FIX.4.2 9=59 35=0 34=163 49=TRAFIX 52=20211209-07:23:17.113 56=JUSTETNA 10=119  
2021-12-09 07:23:22.1280 8=FIX.4.2 9=68 35=0 34=163 49=JUSTETNA 52=20211209-07:23:22.127 56=TRAFIX 128=LAMP 10=123  
2021-12-09 07:23:47.1392 8=FIX.4.2 9=59 35=0 34=164 49=TRAFIX 52=20211209-07:23:47.143 56=JUSTETNA 10=126  
2021-12-09 07:23:52.1811 8=FIX.4.2 9=68 35=0 34=164 49=JUSTETNA 52=20211209-07:23:52.181 56=TRAFIX 128=LAMP 10=127  
2021-12-09 07:24:17.1984 8=FIX.4.2 9=59 35=0 34=165 49=TRAFIX 52=20211209-07:24:17.192 56=JUSTETNA 10=129  
2021-12-09 07:24:22.2099 8=FIX.4.2 9=68 35=0 34=165 49=JUSTETNA 52=20211209-07:24:22.209 56=TRAFIX 128=LAMP 10=127  
2021-12-09 07:24:47.2249 8=FIX.4.2 9=59 35=0 34=166 49=TRAFIX 52=20211209-07:24:47.224 56=JUSTETNA 10=129  
2021-12-09 07:24:52.2627 8=FIX.4.2 9=68 35=0 34=166 49=JUSTETNA 52=20211209-07:24:52.262 56=TRAFIX 128=LAMP 10=130  
2021-12-09 07:25:17.2773 8=FIX.4.2 9=59 35=0 34=167 49=TRAFIX 52=20211209-07:25:17.275 56=JUSTETNA 10=134  
2021-12-09 07:25:22.3101 8=FIX.4.2 9=68 35=0 34=167 49=JUSTETNA 52=20211209-07:25:22.310 56=TRAFIX 128=LAMP 10=123  
2021-12-09 07:25:47.3151 8=FIX.4.2 9=59 35=0 34=168 49=TRAFIX 52=20211209-07:25:47.322 56=JUSTETNA 10=131  
2021-12-09 07:25:52.3422 8=FIX.4.2 9=68 35=0 34=168 49=JUSTETNA 52=20211209-07:25:52.342 56=TRAFIX 128=LAMP 10=132  
2021-12-09 07:26:17.3633 8=FIX.4.2 9=59 35=0 34=169 49=TRAFIX 52=20211209-07:26:17.356 56=JUSTETNA 10=137  
2021-12-09 07:26:22.3877 8=FIX.4.2 9=68 35=0 34=169 49=JUSTETNA 52=20211209-07:26:22.387 56=TRAFIX 128=LAMP 10=140  
2021-12-09 07:26:47.3971 8=FIX.4.2 9=59 35=0 34=170 49=TRAFIX 52=20211209-07:26:47.400 56=JUSTETNA 10=122  
2021-12-09 07:26:52.4166 8=FIX.4.2 9=68 35=0 34=170 49=JUSTETNA 52=20211209-07:26:52.416 56=TRAFIX 128=LAMP 10=128  
2021-12-09 07:27:17.4232 8=FIX.4.2 9=59 35=0 34=171 49=TRAFIX 52=20211209-07:27:17.427 56=JUSTETNA 10=130  
2021-12-09 07:27:22.4386 8=FIX.4.2 9=68 35=0 34=171 49=JUSTETNA 52=20211209-07:27:22.438 56=TRAFIX 128=LAMP 10=131  
2021-12-09 07:27:47.4484 8=FIX.4.2 9=59 35=0 34=172 49=TRAFIX 52=20211209-07:27:47.452 56=JUSTETNA 10=132  
2021-12-09 07:27:52.4601 8=FIX.4.2 9=68 35=0 34=172 49=JUSTETNA 52=20211209-07:27:52.460 56=TRAFIX 128=LAMP 10=130  
2021-12-09 07:28:17.4705 8=FIX.4.2 9=59 35=0 34=173 49=TRAFIX 52=20211209-07:28:17.469 56=JUSTETNA 10=139  
2021-12-09 07:28:22.5198 8=FIX.4.2 9=68 35=0 34=173 49=JUSTETNA 52=20211209-07:28:22.519 56=TRAFIX 128=LAMP 10=134  
2021-12-09 07:28:47.5246 8=FIX.4.2 9=59 35=0 34=174 49=TRAFIX 52=20211209-07:28:47.532 56=JUSTETNA 10=134  
2021-12-09 07:28:52.5542 8=FIX.4.2 9=68 35=0 34=174 49=JUSTETNA 52=20211209-07:28:52.554 56=TRAFIX 128=LAMP 10=137  
2021-12-09 07:29:17.5643 8=FIX.4.2 9=59 35=0 34=175 49=TRAFIX 52=20211209-07:29:17.562 56=JUSTETNA 10=136  
2021-12-09 07:29:22.5782 8=FIX.4.2 9=68 35=0 34=175 49=JUSTETNA 52=20211209-07:29:22.578 56=TRAFIX 128=LAMP 10=142  
2021-12-09 07:29:47.5866 8=FIX.4.2 9=59 35=0 34=176 49=TRAFIX 52=20211209-07:29:47.591 56=JUSTETNA 10=142  
2021-12-09 07:29:52.6152 8=FIX.4.2 9=68 35=0 34=176 49=JUSTETNA 52=20211209-07:29:52.615 56=TRAFIX 128=LAMP 10=138  
2021-12-09 07:30:17.6282 8=FIX.4.2 9=59 35=0 34=177 49=TRAFIX 52=20211209-07:30:17.625 56=JUSTETNA 10=130  
2021-12-09 07:30:22.6451 8=FIX.4.2 9=68 35=0 34=177 49=JUSTETNA 52=20211209-07:30:22.645 56=TRAFIX 128=LAMP 10=131  
2021-12-09 07:30:47.6630 8=FIX.4.2 9=59 35=0 34=178 49=TRAFIX 52=20211209-07:30:47.659 56=JUSTETNA 10=141  
2021-12-09 07:30:52.6948 8=FIX.4.2 9=68 35=0 34=178 49=JUSTETNA 52=20211209-07:30:52.694 56=TRAFIX 128=LAMP 10=139  
2021-12-09 07:31:17.7043 8=FIX.4.2 9=59 35=0 34=179 49=TRAFIX 52=20211209-07:31:17.706 56=JUSTETNA 10=133  
2021-12-09 07:31:22.7211 8=FIX.4.2 9=68 35=0 34=179 49=JUSTETNA 52=20211209-07:31:22.721 56=TRAFIX 128=LAMP 10=129  
2021-12-09 07:31:47.7402 8=FIX.4.2 9=59 35=0 34=180 49=TRAFIX 52=20211209-07:31:47.735 56=JUSTETNA 10=130  
2021-12-09 07:31:52.7636 8=FIX.4.2 9=68 35=0 34=180 49=JUSTETNA 52=20211209-07:31:52.763 56=TRAFIX 128=LAMP 10=130  
2021-12-09 07:32:17.7738 8=FIX.4.2 9=59 35=0 34=181 49=TRAFIX 52=20211209-07:32:17.775 56=JUSTETNA 10=133  
2021-12-09 07:32:22.7886 8=FIX.4.2 9=68 35=0 34=181 49=JUSTETNA 52=20211209-07:32:22.788 56=TRAFIX 128=LAMP 10=136  
2021-12-09 07:32:47.8019 8=FIX.4.2 9=59 35=0 34=182 49=TRAFIX 52=20211209-07:32:47.800 56=JUSTETNA 10=126  
2021-12-09 07:32:52.8184 8=FIX.4.2 9=68 35=0 34=182 49=JUSTETNA 52=20211209-07:32:52.818 56=TRAFIX 128=LAMP 10=134  
2021-12-09 07:33:17.8342 8=FIX.4.2 9=59 35=0 34=183 49=TRAFIX 52=20211209-07:33:17.831 56=JUSTETNA 10=129  
2021-12-09 07:33:22.8663 8=FIX.4.2 9=68 35=0 34=183 49=JUSTETNA 52=20211209-07:33:22.866 56=TRAFIX 128=LAMP 10=136  
2021-12-09 07:33:47.8842 8=FIX.4.2 9=59 35=0 34=184 49=TRAFIX 52=20211209-07:33:47.878 56=JUSTETNA 10=144  
2021-12-09 07:33:52.8981 8=FIX.4.2 9=68 35=0 34=184 49=JUSTETNA 52=20211209-07:33:52.898 56=TRAFIX 128=LAMP 10=145  
2021-12-09 07:34:17.9149 8=FIX.4.2 9=59 35=0 34=185 49=TRAFIX 52=20211209-07:34:17.910 56=JUSTETNA 10=130  
2021-12-09 07:34:22.9341 8=FIX.4.2 9=68 35=0 34=185 49=JUSTETNA 52=20211209-07:34:22.934 56=TRAFIX 128=LAMP 10=135  
2021-12-09 07:34:47.9477 8=FIX.4.2 9=59 35=0 34=186 49=TRAFIX 52=20211209-07:34:47.945 56=JUSTETNA 10=142  
2021-12-09 07:34:52.9822 8=FIX.4.2 9=68 35=0 34=186 49=JUSTETNA 52=20211209-07:34:52.982 56=TRAFIX 128=LAMP 10=142  
2021-12-09 07:35:17.9991 8=FIX.4.2 9=59 35=0 34=187 49=TRAFIX 52=20211209-07:35:17.993 56=JUSTETNA 10=144  
2021-12-09 07:35:23.0182 8=FIX.4.2 9=68 35=0 34=187 49=JUSTETNA 52=20211209-07:35:23.018 56=TRAFIX 128=LAMP 10=132  
2021-12-09 07:35:47.0279 8=FIX.4.2 9=59 35=0 34=188 49=TRAFIX 52=20211209-07:35:47.028 56=JUSTETNA 10=137  
2021-12-09 07:35:53.0514 8=FIX.4.2 9=68 35=0 34=188 49=JUSTETNA 52=20211209-07:35:53.051 56=TRAFIX 128=LAMP 10=133  
2021-12-09 07:36:17.0663 8=FIX.4.2 9=59 35=0 34=189 49=TRAFIX 52=20211209-07:36:17.060 56=JUSTETNA 10=132  
2021-12-09 07:36:23.0850 8=FIX.4.2 9=68 35=0 34=189 49=JUSTETNA 52=20211209-07:36:23.085 56=TRAFIX 128=LAMP 10=139  
2021-12-09 07:36:47.0992 8=FIX.4.2 9=59 35=0 34=190 49=TRAFIX 52=20211209-07:36:47.094 56=JUSTETNA 10=134  
2021-12-09 07:36:53.1263 8=FIX.4.2 9=68 35=0 34=190 49=JUSTETNA 52=20211209-07:36:53.126 56=TRAFIX 128=LAMP 10=130  
2021-12-09 07:37:17.1394 8=FIX.4.2 9=59 35=0 34=191 49=TRAFIX 52=20211209-07:37:17.136 56=JUSTETNA 10=130  
2021-12-09 07:37:23.1617 8=FIX.4.2 9=68 35=0 34=191 49=JUSTETNA 52=20211209-07:37:23.161 56=TRAFIX 128=LAMP 10=128  
2021-12-09 07:37:47.1719 8=FIX.4.2 9=59 35=0 34=192 49=TRAFIX 52=20211209-07:37:47.173 56=JUSTETNA 10=135  
2021-12-09 07:37:53.1912 8=FIX.4.2 9=68 35=0 34=192 49=JUSTETNA 52=20211209-07:37:53.191 56=TRAFIX 128=LAMP 10=135  
2021-12-09 07:38:17.1975 8=FIX.4.2 9=59 35=0 34=193 49=TRAFIX 52=20211209-07:38:17.204 56=JUSTETNA 10=129  
2021-12-09 07:38:23.2337 8=FIX.4.2 9=68 35=0 34=193 49=JUSTETNA 52=20211209-07:38:23.233 56=TRAFIX 128=LAMP 10=131  
2021-12-09 07:38:47.2496 8=FIX.4.2 9=59 35=0 34=194 49=TRAFIX 52=20211209-07:38:47.245 56=JUSTETNA 10=138  
2021-12-09 07:38:53.2732 8=FIX.4.2 9=68 35=0 34=194 49=JUSTETNA 52=20211209-07:38:53.273 56=TRAFIX 128=LAMP 10=139  
2021-12-09 07:39:17.2910 8=FIX.4.2 9=59 35=0 34=195 49=TRAFIX 52=20211209-07:39:17.284 56=JUSTETNA 10=140  
2021-12-09 07:39:23.3131 8=FIX.4.2 9=68 35=0 34=195 49=JUSTETNA 52=20211209-07:39:23.313 56=TRAFIX 128=LAMP 10=133  
2021-12-09 07:39:47.3305 8=FIX.4.2 9=59 35=0 34=196 49=TRAFIX 52=20211209-07:39:47.324 56=JUSTETNA 10=139  
2021-12-09 07:39:53.3498 8=FIX.4.2 9=68 35=0 34=196 49=JUSTETNA 52=20211209-07:39:53.349 56=TRAFIX 128=LAMP 10=146  
2021-12-09 07:40:17.3549 8=FIX.4.2 9=59 35=0 34=197 49=TRAFIX 52=20211209-07:40:17.360 56=JUSTETNA 10=129  
2021-12-09 07:40:23.3787 8=FIX.4.2 9=68 35=0 34=197 49=JUSTETNA 52=20211209-07:40:23.378 56=TRAFIX 128=LAMP 10=138  
2021-12-09 07:40:47.3933 8=FIX.4.2 9=59 35=0 34=198 49=TRAFIX 52=20211209-07:40:47.389 56=JUSTETNA 10=144  
2021-12-09 07:40:53.4343 8=FIX.4.2 9=68 35=0 34=198 49=JUSTETNA 52=20211209-07:40:53.434 56=TRAFIX 128=LAMP 10=135  
2021-12-09 07:41:17.4425 8=FIX.4.2 9=59 35=0 34=199 49=TRAFIX 52=20211209-07:41:17.447 56=JUSTETNA 10=138  
2021-12-09 07:41:23.4558 8=FIX.4.2 9=68 35=0 34=199 49=JUSTETNA 52=20211209-07:41:23.455 56=TRAFIX 128=LAMP 10=137  
2021-12-09 07:41:47.4625 8=FIX.4.2 9=59 35=0 34=200 49=TRAFIX 52=20211209-07:41:47.468 56=JUSTETNA 10=127  
2021-12-09 07:41:53.4829 8=FIX.4.2 9=68 35=0 34=200 49=JUSTETNA 52=20211209-07:41:53.482 56=TRAFIX 128=LAMP 10=123  
2021-12-09 07:42:17.4885 8=FIX.4.2 9=59 35=0 34=201 49=TRAFIX 52=20211209-07:42:17.493 56=JUSTETNA 10=124  
2021-12-09 07:42:23.4975 8=FIX.4.2 9=68 35=0 34=201 49=JUSTETNA 52=20211209-07:42:23.497 56=TRAFIX 128=LAMP 10=128  
2021-12-09 07:42:47.5056 8=FIX.4.2 9=59 35=0 34=202 49=TRAFIX 52=20211209-07:42:47.509 56=JUSTETNA 10=126  
2021-12-09 07:42:53.5207 8=FIX.4.2 9=68 35=0 34=202 49=JUSTETNA 52=20211209-07:42:53.520 56=TRAFIX 128=LAMP 10=119  
2021-12-09 07:43:17.5252 8=FIX.4.2 9=59 35=0 34=203 49=TRAFIX 52=20211209-07:43:17.530 56=JUSTETNA 10=119  
2021-12-09 07:43:23.5395 8=FIX.4.2 9=68 35=0 34=203 49=JUSTETNA 52=20211209-07:43:23.539 56=TRAFIX 128=LAMP 10=128  
2021-12-09 07:43:47.5516 8=FIX.4.2 9=59 35=0 34=204 49=TRAFIX 52=20211209-07:43:47.549 56=JUSTETNA 10=133  
2021-12-09 07:43:53.5785 8=FIX.4.2 9=68 35=0 34=204 49=JUSTETNA 52=20211209-07:43:53.578 56=TRAFIX 128=LAMP 10=135  
2021-12-09 07:44:17.5850 8=FIX.4.2 9=59 35=0 34=205 49=TRAFIX 52=20211209-07:44:17.590 56=JUSTETNA 10=128  
2021-12-09 07:44:23.6098 8=FIX.4.2 9=68 35=0 34=205 49=JUSTETNA 52=20211209-07:44:23.609 56=TRAFIX 128=LAMP 10=129  
2021-12-09 07:44:47.6184 8=FIX.4.2 9=59 35=0 34=206 49=TRAFIX 52=20211209-07:44:47.616 56=JUSTETNA 10=131  
2021-12-09 07:44:53.6434 8=FIX.4.2 9=68 35=0 34=206 49=JUSTETNA 52=20211209-07:44:53.643 56=TRAFIX 128=LAMP 10=131  
2021-12-09 07:45:17.6621 8=FIX.4.2 9=59 35=0 34=207 49=TRAFIX 52=20211209-07:45:17.656 56=JUSTETNA 10=134  
2021-12-09 07:45:23.6788 8=FIX.4.2 9=68 35=0 34=207 49=JUSTETNA 52=20211209-07:45:23.678 56=TRAFIX 128=LAMP 10=138  
2021-12-09 07:45:47.6976 8=FIX.4.2 9=59 35=0 34=208 49=TRAFIX 52=20211209-07:45:47.689 56=JUSTETNA 10=144  
2021-12-09 07:45:53.7302 8=FIX.4.2 9=68 35=0 34=208 49=JUSTETNA 52=20211209-07:45:53.730 56=TRAFIX 128=LAMP 10=131  
2021-12-09 07:46:17.7462 8=FIX.4.2 9=59 35=0 34=209 49=TRAFIX 52=20211209-07:46:17.739 56=JUSTETNA 10=139  
2021-12-09 07:46:23.7791 8=FIX.4.2 9=68 35=0 34=209 49=JUSTETNA 52=20211209-07:46:23.779 56=TRAFIX 128=LAMP 10=143  
2021-12-09 07:46:47.7848 8=FIX.4.2 9=59 35=0 34=210 49=TRAFIX 52=20211209-07:46:47.787 56=JUSTETNA 10=137  
2021-12-09 07:46:53.8276 8=FIX.4.2 9=68 35=0 34=210 49=JUSTETNA 52=20211209-07:46:53.827 56=TRAFIX 128=LAMP 10=132  
2021-12-09 07:47:17.8425 8=FIX.4.2 9=59 35=0 34=211 49=TRAFIX 52=20211209-07:47:17.838 56=JUSTETNA 10=133  
2021-12-09 07:47:23.8597 8=FIX.4.2 9=68 35=0 34=211 49=JUSTETNA 52=20211209-07:47:23.859 56=TRAFIX 128=LAMP 10=136  
2021-12-09 07:47:47.8794 8=FIX.4.2 9=59 35=0 34=212 49=TRAFIX 52=20211209-07:47:47.872 56=JUSTETNA 10=135  
2021-12-09 07:47:53.9144 8=FIX.4.2 9=68 35=0 34=212 49=JUSTETNA 52=20211209-07:47:53.914 56=TRAFIX 128=LAMP 10=132  
2021-12-09 07:48:17.9235 8=FIX.4.2 9=59 35=0 34=213 49=TRAFIX 52=20211209-07:48:17.924 56=JUSTETNA 10=132  
2021-12-09 07:48:23.9408 8=FIX.4.2 9=68 35=0 34=213 49=JUSTETNA 52=20211209-07:48:23.940 56=TRAFIX 128=LAMP 10=130  
2021-12-09 07:48:47.9539 8=FIX.4.2 9=59 35=0 34=214 49=TRAFIX 52=20211209-07:48:47.951 56=JUSTETNA 10=136  
2021-12-09 07:48:53.9761 8=FIX.4.2 9=68 35=0 34=214 49=JUSTETNA 52=20211209-07:48:53.976 56=TRAFIX 128=LAMP 10=143  
2021-12-09 07:49:17.9900 8=FIX.4.2 9=59 35=0 34=215 49=TRAFIX 52=20211209-07:49:17.986 56=JUSTETNA 10=143  
2021-12-09 07:49:24.0154 8=FIX.4.2 9=68 35=0 34=215 49=JUSTETNA 52=20211209-07:49:24.015 56=TRAFIX 128=LAMP 10=127  
2021-12-09 07:49:47.0276 8=FIX.4.2 9=59 35=0 34=216 49=TRAFIX 52=20211209-07:49:47.027 56=JUSTETNA 10=133  
2021-12-09 07:49:54.0646 8=FIX.4.2 9=68 35=0 34=216 49=JUSTETNA 52=20211209-07:49:54.064 56=TRAFIX 128=LAMP 10=135  
2021-12-09 07:50:17.0733 8=FIX.4.2 9=59 35=0 34=217 49=TRAFIX 52=20211209-07:50:17.071 56=JUSTETNA 10=122  
2021-12-09 07:50:24.0976 8=FIX.4.2 9=68 35=0 34=217 49=JUSTETNA 52=20211209-07:50:24.097 56=TRAFIX 128=LAMP 10=131  
2021-12-09 07:50:47.0990 8=FIX.4.2 9=59 35=0 34=218 49=TRAFIX 52=20211209-07:50:47.104 56=JUSTETNA 10=123  
2021-12-09 07:50:54.1315 8=FIX.4.2 9=68 35=0 34=218 49=JUSTETNA 52=20211209-07:50:54.131 56=TRAFIX 128=LAMP 10=124  
2021-12-09 07:51:17.1335 8=FIX.4.2 9=59 35=0 34=219 49=TRAFIX 52=20211209-07:51:17.140 56=JUSTETNA 10=122  
2021-12-09 07:51:24.1543 8=FIX.4.2 9=68 35=0 34=219 49=JUSTETNA 52=20211209-07:51:24.154 56=TRAFIX 128=LAMP 10=128  
2021-12-09 07:51:47.1717 8=FIX.4.2 9=59 35=0 34=220 49=TRAFIX 52=20211209-07:51:47.164 56=JUSTETNA 10=123  
2021-12-09 07:51:54.2209 8=FIX.4.2 9=68 35=0 34=220 49=JUSTETNA 52=20211209-07:51:54.220 56=TRAFIX 128=LAMP 10=117  
2021-12-09 07:52:17.2263 8=FIX.4.2 9=59 35=0 34=221 49=TRAFIX 52=20211209-07:52:17.228 56=JUSTETNA 10=123  
2021-12-09 07:52:24.2523 8=FIX.4.2 9=68 35=0 34=221 49=JUSTETNA 52=20211209-07:52:24.252 56=TRAFIX 128=LAMP 10=121  
2021-12-09 07:52:47.2559 8=FIX.4.2 9=59 35=0 34=222 49=TRAFIX 52=20211209-07:52:47.260 56=JUSTETNA 10=123  
2021-12-09 07:52:54.2877 8=FIX.4.2 9=68 35=0 34=222 49=JUSTETNA 52=20211209-07:52:54.287 56=TRAFIX 128=LAMP 10=133  
2021-12-09 07:53:17.3043 8=FIX.4.2 9=59 35=0 34=223 49=TRAFIX 52=20211209-07:53:17.298 56=JUSTETNA 10=133  
2021-12-09 07:53:24.3364 8=FIX.4.2 9=68 35=0 34=223 49=JUSTETNA 52=20211209-07:53:24.336 56=TRAFIX 128=LAMP 10=127  
2021-12-09 07:53:47.3534 8=FIX.4.2 9=59 35=0 34=224 49=TRAFIX 52=20211209-07:53:47.348 56=JUSTETNA 10=133  
2021-12-09 07:53:54.3915 8=FIX.4.2 9=68 35=0 34=224 49=JUSTETNA 52=20211209-07:53:54.391 56=TRAFIX 128=LAMP 10=132  
2021-12-09 07:54:17.3997 8=FIX.4.2 9=59 35=0 34=225 49=TRAFIX 52=20211209-07:54:17.402 56=JUSTETNA 10=123  
2021-12-09 07:54:24.4352 8=FIX.4.2 9=68 35=0 34=225 49=JUSTETNA 52=20211209-07:54:24.435 56=TRAFIX 128=LAMP 10=130  
2021-12-09 07:54:47.4375 8=FIX.4.2 9=59 35=0 34=226 49=TRAFIX 52=20211209-07:54:47.444 56=JUSTETNA 10=133  
2021-12-09 07:54:54.5168 8=FIX.4.2 9=68 35=0 34=226 49=JUSTETNA 52=20211209-07:54:54.516 56=TRAFIX 128=LAMP 10=134  
2021-12-09 07:55:17.5288 8=FIX.4.2 9=59 35=0 34=227 49=TRAFIX 52=20211209-07:55:17.527 56=JUSTETNA 10=134  
2021-12-09 07:55:24.5772 8=FIX.4.2 9=68 35=0 34=227 49=JUSTETNA 52=20211209-07:55:24.577 56=TRAFIX 128=LAMP 10=140  
2021-12-09 07:55:47.5861 8=FIX.4.2 9=59 35=0 34=228 49=TRAFIX 52=20211209-07:55:47.589 56=JUSTETNA 10=146  
2021-12-09 07:55:54.6239 8=FIX.4.2 9=68 35=0 34=228 49=JUSTETNA 52=20211209-07:55:54.623 56=TRAFIX 128=LAMP 10=136  
2021-12-09 07:56:17.6375 8=FIX.4.2 9=59 35=0 34=229 49=TRAFIX 52=20211209-07:56:17.634 56=JUSTETNA 10=136  
2021-12-09 07:56:24.6562 8=FIX.4.2 9=68 35=0 34=229 49=JUSTETNA 52=20211209-07:56:24.656 56=TRAFIX 128=LAMP 10=141  
2021-12-09 07:56:47.6716 8=FIX.4.2 9=59 35=0 34=230 49=TRAFIX 52=20211209-07:56:47.668 56=JUSTETNA 10=138  
2021-12-09 07:56:54.7091 8=FIX.4.2 9=68 35=0 34=230 49=JUSTETNA 52=20211209-07:56:54.709 56=TRAFIX 128=LAMP 10=135  
2021-12-09 07:57:17.7256 8=FIX.4.2 9=59 35=0 34=231 49=TRAFIX 52=20211209-07:57:17.720 56=JUSTETNA 10=126  
2021-12-09 07:57:24.7637 8=FIX.4.2 9=68 35=0 34=231 49=JUSTETNA 52=20211209-07:57:24.763 56=TRAFIX 128=LAMP 10=134  
2021-12-09 07:57:47.7773 8=FIX.4.2 9=59 35=0 34=232 49=TRAFIX 52=20211209-07:57:47.774 56=JUSTETNA 10=139  
2021-12-09 07:57:54.8031 8=FIX.4.2 9=68 35=0 34=232 49=JUSTETNA 52=20211209-07:57:54.803 56=TRAFIX 128=LAMP 10=133  
2021-12-09 07:58:17.8201 8=FIX.4.2 9=59 35=0 34=233 49=TRAFIX 52=20211209-07:58:17.814 56=JUSTETNA 10=133  
2021-12-09 07:58:24.8455 8=FIX.4.2 9=68 35=0 34=233 49=JUSTETNA 52=20211209-07:58:24.845 56=TRAFIX 128=LAMP 10=138  
2021-12-09 07:58:47.8613 8=FIX.4.2 9=59 35=0 34=234 49=TRAFIX 52=20211209-07:58:47.856 56=JUSTETNA 10=143  
2021-12-09 07:58:54.8920 8=FIX.4.2 9=68 35=0 34=234 49=JUSTETNA 52=20211209-07:58:54.892 56=TRAFIX 128=LAMP 10=144  
2021-12-09 07:59:17.9054 8=FIX.4.2 9=59 35=0 34=235 49=TRAFIX 52=20211209-07:59:17.902 56=JUSTETNA 10=134  
2021-12-09 07:59:24.9226 8=FIX.4.2 9=68 35=0 34=235 49=JUSTETNA 52=20211209-07:59:24.922 56=TRAFIX 128=LAMP 10=137  
2021-12-09 07:59:47.9284 8=FIX.4.2 9=59 35=0 34=236 49=TRAFIX 52=20211209-07:59:47.934 56=JUSTETNA 10=143  
2021-12-09 07:59:54.9710 8=FIX.4.2 9=68 35=0 34=236 49=JUSTETNA 52=20211209-07:59:54.971 56=TRAFIX 128=LAMP 10=145  
2021-12-09 08:00:17.9854 8=FIX.4.2 9=59 35=0 34=237 49=TRAFIX 52=20211209-08:00:17.981 56=JUSTETNA 10=130  
2021-12-09 08:00:25.0064 8=FIX.4.2 9=68 35=0 34=237 49=JUSTETNA 52=20211209-08:00:25.006 56=TRAFIX 128=LAMP 10=120  
2021-12-09 08:00:47.0214 8=FIX.4.2 9=59 35=0 34=238 49=TRAFIX 52=20211209-08:00:47.014 56=JUSTETNA 10=121  
2021-12-09 08:00:55.0649 8=FIX.4.2 9=68 35=0 34=238 49=JUSTETNA 52=20211209-08:00:55.064 56=TRAFIX 128=LAMP 10=128  
2021-12-09 08:01:17.0752 8=FIX.4.2 9=59 35=0 34=239 49=TRAFIX 52=20211209-08:01:17.074 56=JUSTETNA 10=126  
2021-12-09 08:01:25.0868 8=FIX.4.2 9=68 35=0 34=239 49=JUSTETNA 52=20211209-08:01:25.086 56=TRAFIX 128=LAMP 10=131  
2021-12-09 08:01:47.0915 8=FIX.4.2 9=59 35=0 34=240 49=TRAFIX 52=20211209-08:01:47.097 56=JUSTETNA 10=126  
2021-12-09 08:01:55.1336 8=FIX.4.2 9=68 35=0 34=240 49=JUSTETNA 52=20211209-08:01:55.133 56=TRAFIX 128=LAMP 10=119  
2021-12-09 08:02:17.1456 8=FIX.4.2 9=59 35=0 34=241 49=TRAFIX 52=20211209-08:02:17.144 56=JUSTETNA 10=118  
2021-12-09 08:02:25.1775 8=FIX.4.2 9=68 35=0 34=241 49=JUSTETNA 52=20211209-08:02:25.177 56=TRAFIX 128=LAMP 10=126  
2021-12-09 08:02:47.1865 8=FIX.4.2 9=59 35=0 34=242 49=TRAFIX 52=20211209-08:02:47.185 56=JUSTETNA 10=127  
2021-12-09 08:02:55.2203 8=FIX.4.2 9=68 35=0 34=242 49=JUSTETNA 52=20211209-08:02:55.220 56=TRAFIX 128=LAMP 10=119  
2021-12-09 08:03:17.2337 8=FIX.4.2 9=59 35=0 34=243 49=TRAFIX 52=20211209-08:03:17.231 56=JUSTETNA 10=118  
2021-12-09 08:03:25.2547 8=FIX.4.2 9=68 35=0 34=243 49=JUSTETNA 52=20211209-08:03:25.254 56=TRAFIX 128=LAMP 10=125  
2021-12-09 08:03:47.2745 8=FIX.4.2 9=59 35=0 34=244 49=TRAFIX 52=20211209-08:03:47.263 56=JUSTETNA 10=127  
2021-12-09 08:03:55.3196 8=FIX.4.2 9=68 35=0 34=244 49=JUSTETNA 52=20211209-08:03:55.319 56=TRAFIX 128=LAMP 10=131  
2021-12-09 08:04:17.3286 8=FIX.4.2 9=59 35=0 34=245 49=TRAFIX 52=20211209-08:04:17.330 56=JUSTETNA 10=121  
2021-12-09 08:04:25.3495 8=FIX.4.2 9=68 35=0 34=245 49=JUSTETNA 52=20211209-08:04:25.349 56=TRAFIX 128=LAMP 10=133  
2021-12-09 08:04:47.3663 8=FIX.4.2 9=59 35=0 34=246 49=TRAFIX 52=20211209-08:04:47.359 56=JUSTETNA 10=136  
2021-12-09 08:04:55.4009 8=FIX.4.2 9=68 35=0 34=246 49=JUSTETNA 52=20211209-08:04:55.400 56=TRAFIX 128=LAMP 10=125  
2021-12-09 08:05:17.4074 8=FIX.4.2 9=59 35=0 34=247 49=TRAFIX 52=20211209-08:05:17.410 56=JUSTETNA 10=123  
2021-12-09 08:05:25.4257 8=FIX.4.2 9=68 35=0 34=247 49=JUSTETNA 52=20211209-08:05:25.425 56=TRAFIX 128=LAMP 10=131  
2021-12-09 08:05:47.4424 8=FIX.4.2 9=59 35=0 34=248 49=TRAFIX 52=20211209-08:05:47.434 56=JUSTETNA 10=133  
2021-12-09 08:05:55.4747 8=FIX.4.2 9=68 35=0 34=248 49=JUSTETNA 52=20211209-08:05:55.474 56=TRAFIX 128=LAMP 10=139  
2021-12-09 08:06:17.4927 8=FIX.4.2 9=59 35=0 34=249 49=TRAFIX 52=20211209-08:06:17.486 56=JUSTETNA 10=139  
2021-12-09 08:06:25.5329 8=FIX.4.2 9=68 35=0 34=249 49=JUSTETNA 52=20211209-08:06:25.532 56=TRAFIX 128=LAMP 10=133  
2021-12-09 08:06:47.5396 8=FIX.4.2 9=59 35=0 34=250 49=TRAFIX 52=20211209-08:06:47.543 56=JUSTETNA 10=128  
2021-12-09 08:06:55.5850 8=FIX.4.2 9=68 35=0 34=250 49=JUSTETNA 52=20211209-08:06:55.585 56=TRAFIX 128=LAMP 10=136  
2021-12-09 08:07:17.5987 8=FIX.4.2 9=59 35=0 34=251 49=TRAFIX 52=20211209-08:07:17.594 56=JUSTETNA 10=133  
2021-12-09 08:07:25.6384 8=FIX.4.2 9=68 35=0 34=251 49=JUSTETNA 52=20211209-08:07:25.638 56=TRAFIX 128=LAMP 10=134  
2021-12-09 08:07:47.6500 8=FIX.4.2 9=59 35=0 34=252 49=TRAFIX 52=20211209-08:07:47.649 56=JUSTETNA 10=138  
2021-12-09 08:07:55.7104 8=FIX.4.2 9=68 35=0 34=252 49=JUSTETNA 52=20211209-08:07:55.710 56=TRAFIX 128=LAMP 10=129  
2021-12-09 08:08:17.7134 8=FIX.4.2 9=59 35=0 34=253 49=TRAFIX 52=20211209-08:08:17.719 56=JUSTETNA 10=135  
2021-12-09 08:08:25.7414 8=FIX.4.2 9=68 35=0 34=253 49=JUSTETNA 52=20211209-08:08:25.741 56=TRAFIX 128=LAMP 10=132  
2021-12-09 08:08:47.7438 8=FIX.4.2 9=59 35=0 34=254 49=TRAFIX 52=20211209-08:08:47.750 56=JUSTETNA 10=134  
2021-12-09 08:08:55.7848 8=FIX.4.2 9=68 35=0 34=254 49=JUSTETNA 52=20211209-08:08:55.784 56=TRAFIX 128=LAMP 10=143  
2021-12-09 08:09:17.7993 8=FIX.4.2 9=59 35=0 34=255 49=TRAFIX 52=20211209-08:09:17.793 56=JUSTETNA 10=140  
2021-12-09 08:09:25.8257 8=FIX.4.2 9=68 35=0 34=255 49=JUSTETNA 52=20211209-08:09:25.825 56=TRAFIX 128=LAMP 10=138  
2021-12-09 08:09:47.8309 8=FIX.4.2 9=59 35=0 34=256 49=TRAFIX 52=20211209-08:09:47.834 56=JUSTETNA 10=140  
2021-12-09 08:09:55.8718 8=FIX.4.2 9=68 35=0 34=256 49=JUSTETNA 52=20211209-08:09:55.871 56=TRAFIX 128=LAMP 10=143  
2021-12-09 08:10:17.8840 8=FIX.4.2 9=59 35=0 34=257 49=TRAFIX 52=20211209-08:10:17.882 56=JUSTETNA 10=133  
2021-12-09 08:10:25.9090 8=FIX.4.2 9=68 35=0 34=257 49=JUSTETNA 52=20211209-08:10:25.909 56=TRAFIX 128=LAMP 10=135  
2021-12-09 08:10:47.9151 8=FIX.4.2 9=59 35=0 34=258 49=TRAFIX 52=20211209-08:10:47.913 56=JUSTETNA 10=132  
2021-12-09 08:10:55.9539 8=FIX.4.2 9=68 35=0 34=258 49=JUSTETNA 52=20211209-08:10:55.953 56=TRAFIX 128=LAMP 10=138  
2021-12-09 08:11:17.9626 8=FIX.4.2 9=59 35=0 34=259 49=TRAFIX 52=20211209-08:11:17.961 56=JUSTETNA 10=134  
2021-12-09 08:11:25.9877 8=FIX.4.2 9=68 35=0 34=259 49=JUSTETNA 52=20211209-08:11:25.987 56=TRAFIX 128=LAMP 10=144  
2021-12-09 08:11:47.9908 8=FIX.4.2 9=59 35=0 34=260 49=TRAFIX 52=20211209-08:11:47.997 56=JUSTETNA 10=138  
2021-12-09 08:11:56.0278 8=FIX.4.2 9=68 35=0 34=260 49=JUSTETNA 52=20211209-08:11:56.027 56=TRAFIX 128=LAMP 10=125  
2021-12-09 08:12:17.0342 8=FIX.4.2 9=59 35=0 34=261 49=TRAFIX 52=20211209-08:12:17.034 56=JUSTETNA 10=119  
2021-12-09 08:12:26.0494 8=FIX.4.2 9=68 35=0 34=261 49=JUSTETNA 52=20211209-08:12:26.049 56=TRAFIX 128=LAMP 10=128  
2021-12-09 08:12:47.0547 8=FIX.4.2 9=59 35=0 34=262 49=TRAFIX 52=20211209-08:12:47.057 56=JUSTETNA 10=128  
2021-12-09 08:12:56.0865 8=FIX.4.2 9=68 35=0 34=262 49=JUSTETNA 52=20211209-08:12:56.086 56=TRAFIX 128=LAMP 10=133  
2021-12-09 08:13:17.1001 8=FIX.4.2 9=59 35=0 34=263 49=TRAFIX 52=20211209-08:13:17.093 56=JUSTETNA 10=127  
2021-12-09 08:13:26.1381 8=FIX.4.2 9=68 35=0 34=263 49=JUSTETNA 52=20211209-08:13:26.138 56=TRAFIX 128=LAMP 10=130  
2021-12-09 08:13:47.1402 8=FIX.4.2 9=59 35=0 34=264 49=TRAFIX 52=20211209-08:13:47.148 56=JUSTETNA 10=132  
2021-12-09 08:13:56.1746 8=FIX.4.2 9=68 35=0 34=264 49=JUSTETNA 52=20211209-08:13:56.174 56=TRAFIX 128=LAMP 10=134  
2021-12-09 08:14:17.1826 8=FIX.4.2 9=59 35=0 34=265 49=TRAFIX 52=20211209-08:14:17.181 56=JUSTETNA 10=128  
2021-12-09 08:14:26.2235 8=FIX.4.2 9=68 35=0 34=265 49=JUSTETNA 52=20211209-08:14:26.223 56=TRAFIX 128=LAMP 10=128  
2021-12-09 08:14:47.2380 8=FIX.4.2 9=59 35=0 34=266 49=TRAFIX 52=20211209-08:14:47.232 56=JUSTETNA 10=129  
2021-12-09 08:14:56.2746 8=FIX.4.2 9=68 35=0 34=266 49=JUSTETNA 52=20211209-08:14:56.274 56=TRAFIX 128=LAMP 10=138  
2021-12-09 08:15:17.2707 8=FIX.4.2 9=59 35=0 34=267 49=TRAFIX 52=20211209-08:15:17.282 56=JUSTETNA 10=133  
2021-12-09 08:15:26.3103 8=FIX.4.2 9=68 35=0 34=267 49=JUSTETNA 52=20211209-08:15:26.310 56=TRAFIX 128=LAMP 10=128  
2021-12-09 08:15:47.3143 8=FIX.4.2 9=59 35=0 34=268 49=TRAFIX 52=20211209-08:15:47.330 56=JUSTETNA 10=131  
2021-12-09 08:15:56.3564 8=FIX.4.2 9=68 35=0 34=268 49=JUSTETNA 52=20211209-08:15:56.356 56=TRAFIX 128=LAMP 10=142  
2021-12-09 08:16:17.3739 8=FIX.4.2 9=59 35=0 34=269 49=TRAFIX 52=20211209-08:16:17.375 56=JUSTETNA 10=139  
2021-12-09 08:16:26.4084 8=FIX.4.2 9=68 35=0 34=269 49=JUSTETNA 52=20211209-08:16:26.408 56=TRAFIX 128=LAMP 10=139  
2021-12-09 08:16:47.4183 8=FIX.4.2 9=59 35=0 34=270 49=TRAFIX 52=20211209-08:16:47.417 56=JUSTETNA 10=131  
2021-12-09 08:16:56.4582 8=FIX.4.2 9=68 35=0 34=270 49=JUSTETNA 52=20211209-08:16:56.458 56=TRAFIX 128=LAMP 10=139  
2021-12-09 08:17:17.4700 8=FIX.4.2 9=59 35=0 34=271 49=TRAFIX 52=20211209-08:17:17.466 56=JUSTETNA 10=134  
2021-12-09 08:17:26.5024 8=FIX.4.2 9=68 35=0 34=271 49=JUSTETNA 52=20211209-08:17:26.502 56=TRAFIX 128=LAMP 10=128  
2021-12-09 08:17:47.5099 8=FIX.4.2 9=59 35=0 34=272 49=TRAFIX 52=20211209-08:17:47.509 56=JUSTETNA 10=136  
2021-12-09 08:17:56.5519 8=FIX.4.2 9=68 35=0 34=272 49=JUSTETNA 52=20211209-08:17:56.551 56=TRAFIX 128=LAMP 10=136  
2021-12-09 08:18:17.5544 8=FIX.4.2 9=59 35=0 34=273 49=TRAFIX 52=20211209-08:18:17.559 56=JUSTETNA 10=140  
2021-12-09 08:18:26.5686 8=FIX.4.2 9=68 35=0 34=273 49=JUSTETNA 52=20211209-08:18:26.568 56=TRAFIX 128=LAMP 10=143  
2021-12-09 08:18:47.5794 8=FIX.4.2 9=59 35=0 34=274 49=TRAFIX 52=20211209-08:18:47.575 56=JUSTETNA 10=142  
2021-12-09 08:18:56.5960 8=FIX.4.2 9=68 35=0 34=274 49=JUSTETNA 52=20211209-08:18:56.596 56=TRAFIX 128=LAMP 10=148  
2021-12-09 08:19:17.6002 8=FIX.4.2 9=59 35=0 34=275 49=TRAFIX 52=20211209-08:19:17.605 56=JUSTETNA 10=135  
2021-12-09 08:19:26.6246 8=FIX.4.2 9=68 35=0 34=275 49=JUSTETNA 52=20211209-08:19:26.624 56=TRAFIX 128=LAMP 10=139  
2021-12-09 08:19:47.6397 8=FIX.4.2 9=59 35=0 34=276 49=TRAFIX 52=20211209-08:19:47.635 56=JUSTETNA 10=142  
2021-12-09 08:19:56.6856 8=FIX.4.2 9=68 35=0 34=276 49=JUSTETNA 52=20211209-08:19:56.685 56=TRAFIX 128=LAMP 10=150  
2021-12-09 08:20:17.7022 8=FIX.4.2 9=59 35=0 34=277 49=TRAFIX 52=20211209-08:20:17.695 56=JUSTETNA 10=138  
2021-12-09 08:20:26.7287 8=FIX.4.2 9=68 35=0 34=277 49=JUSTETNA 52=20211209-08:20:26.728 56=TRAFIX 128=LAMP 10=138  
2021-12-09 08:20:47.7304 8=FIX.4.2 9=59 35=0 34=278 49=TRAFIX 52=20211209-08:20:47.738 56=JUSTETNA 10=140  
2021-12-09 08:20:56.7913 8=FIX.4.2 9=68 35=0 34=278 49=JUSTETNA 52=20211209-08:20:56.791 56=TRAFIX 128=LAMP 10=142  
2021-12-09 08:21:17.8005 8=FIX.4.2 9=59 35=0 34=279 49=TRAFIX 52=20211209-08:21:17.800 56=JUSTETNA 10=129  
2021-12-09 08:21:26.8415 8=FIX.4.2 9=68 35=0 34=279 49=JUSTETNA 52=20211209-08:21:26.841 56=TRAFIX 128=LAMP 10=137  
2021-12-09 08:21:47.8540 8=FIX.4.2 9=59 35=0 34=280 49=TRAFIX 52=20211209-08:21:47.850 56=JUSTETNA 10=129  
2021-12-09 08:21:56.9173 8=FIX.4.2 9=68 35=0 34=280 49=JUSTETNA 52=20211209-08:21:56.917 56=TRAFIX 128=LAMP 10=136  
2021-12-09 08:22:17.9264 8=FIX.4.2 9=59 35=0 34=281 49=TRAFIX 52=20211209-08:22:17.927 56=JUSTETNA 10=133  
2021-12-09 08:22:26.9556 8=FIX.4.2 9=68 35=0 34=281 49=JUSTETNA 52=20211209-08:22:26.955 56=TRAFIX 128=LAMP 10=137  
2021-12-09 08:22:47.9589 8=FIX.4.2 9=59 35=0 34=282 49=TRAFIX 52=20211209-08:22:47.961 56=JUSTETNA 10=135  
2021-12-09 08:22:56.9937 8=FIX.4.2 9=68 35=0 34=282 49=JUSTETNA 52=20211209-08:22:56.993 56=TRAFIX 128=LAMP 10=143  
2021-12-09 08:23:17.0064 8=FIX.4.2 9=59 35=0 34=283 49=TRAFIX 52=20211209-08:23:17.002 56=JUSTETNA 10=120  
2021-12-09 08:23:27.0429 8=FIX.4.2 9=68 35=0 34=283 49=JUSTETNA 52=20211209-08:23:27.042 56=TRAFIX 128=LAMP 10=128  
2021-12-09 08:23:47.0465 8=FIX.4.2 9=59 35=0 34=284 49=TRAFIX 52=20211209-08:23:47.052 56=JUSTETNA 10=129  
2021-12-09 08:23:57.0798 8=FIX.4.2 9=68 35=0 34=284 49=JUSTETNA 52=20211209-08:23:57.079 56=TRAFIX 128=LAMP 10=142  
2021-12-09 08:24:17.0882 8=FIX.4.2 9=59 35=0 34=285 49=TRAFIX 52=20211209-08:24:17.087 56=JUSTETNA 10=136  
2021-12-09 08:24:27.1273 8=FIX.4.2 9=68 35=0 34=285 49=JUSTETNA 52=20211209-08:24:27.127 56=TRAFIX 128=LAMP 10=135  
2021-12-09 08:24:47.1306 8=FIX.4.2 9=59 35=0 34=286 49=TRAFIX 52=20211209-08:24:47.134 56=JUSTETNA 10=133  
2021-12-09 08:24:57.1952 8=FIX.4.2 9=68 35=0 34=286 49=JUSTETNA 52=20211209-08:24:57.195 56=TRAFIX 128=LAMP 10=144  
2021-12-09 08:25:17.2095 8=FIX.4.2 9=59 35=0 34=287 49=TRAFIX 52=20211209-08:25:17.202 56=JUSTETNA 10=128  
2021-12-09 08:25:27.2770 8=FIX.4.2 9=68 35=0 34=287 49=JUSTETNA 52=20211209-08:25:27.277 56=TRAFIX 128=LAMP 10=144  
2021-12-09 08:25:47.2885 8=FIX.4.2 9=59 35=0 34=288 49=TRAFIX 52=20211209-08:25:47.286 56=JUSTETNA 10=144  
2021-12-09 08:25:57.3537 8=FIX.4.2 9=68 35=0 34=288 49=JUSTETNA 52=20211209-08:25:57.353 56=TRAFIX 128=LAMP 10=143  
2021-12-09 08:26:17.3659 8=FIX.4.2 9=59 35=0 34=289 49=TRAFIX 52=20211209-08:26:17.363 56=JUSTETNA 10=139  
2021-12-09 08:26:27.4107 8=FIX.4.2 9=68 35=0 34=289 49=JUSTETNA 52=20211209-08:26:27.410 56=TRAFIX 128=LAMP 10=136  
2021-12-09 08:26:47.4181 8=FIX.4.2 9=59 35=0 34=290 49=TRAFIX 52=20211209-08:26:47.418 56=JUSTETNA 10=135  
2021-12-09 08:26:57.4645 8=FIX.4.2 9=68 35=0 34=290 49=JUSTETNA 52=20211209-08:26:57.464 56=TRAFIX 128=LAMP 10=140  
2021-12-09 08:27:17.4745 8=FIX.4.2 9=59 35=0 34=291 49=TRAFIX 52=20211209-08:27:17.473 56=JUSTETNA 10=135  
2021-12-09 08:27:27.5058 8=FIX.4.2 9=68 35=0 34=291 49=JUSTETNA 52=20211209-08:27:27.505 56=TRAFIX 128=LAMP 10=135  
2021-12-09 08:27:47.5174 8=FIX.4.2 9=59 35=0 34=292 49=TRAFIX 52=20211209-08:27:47.514 56=JUSTETNA 10=135  
2021-12-09 08:27:57.5717 8=FIX.4.2 9=68 35=0 34=292 49=JUSTETNA 52=20211209-08:27:57.571 56=TRAFIX 128=LAMP 10=142  
2021-12-09 08:28:17.5729 8=FIX.4.2 9=59 35=0 34=293 49=TRAFIX 52=20211209-08:28:17.581 56=JUSTETNA 10=138  
2021-12-09 08:28:27.6199 8=FIX.4.2 9=68 35=0 34=293 49=JUSTETNA 52=20211209-08:28:27.619 56=TRAFIX 128=LAMP 10=144  
2021-12-09 08:28:47.6256 8=FIX.4.2 9=59 35=0 34=294 49=TRAFIX 52=20211209-08:28:47.629 56=JUSTETNA 10=145  
2021-12-09 08:28:57.6678 8=FIX.4.2 9=68 35=0 34=294 49=JUSTETNA 52=20211209-08:28:57.667 56=TRAFIX 128=LAMP 10=151  
2021-12-09 08:29:17.6807 8=FIX.4.2 9=59 35=0 34=295 49=TRAFIX 52=20211209-08:29:17.676 56=JUSTETNA 10=146  
2021-12-09 08:29:27.7085 8=FIX.4.2 9=68 35=0 34=295 49=JUSTETNA 52=20211209-08:29:27.708 56=TRAFIX 128=LAMP 10=146  
2021-12-09 08:29:47.7181 8=FIX.4.2 9=59 35=0 34=296 49=TRAFIX 52=20211209-08:29:47.718 56=JUSTETNA 10=147  
2021-12-09 08:29:57.7569 8=FIX.4.2 9=68 35=0 34=296 49=JUSTETNA 52=20211209-08:29:57.756 56=TRAFIX 128=LAMP 10=153  
2021-12-09 08:30:17.7694 8=FIX.4.2 9=59 35=0 34=297 49=TRAFIX 52=20211209-08:30:17.766 56=JUSTETNA 10=140  
2021-12-09 08:30:27.7830 8=FIX.4.2 9=68 35=0 34=297 49=JUSTETNA 52=20211209-08:30:27.783 56=TRAFIX 128=LAMP 10=143  
2021-12-09 08:30:47.7981 8=FIX.4.2 9=59 35=0 34=298 49=TRAFIX 52=20211209-08:30:47.792 56=JUSTETNA 10=143  
2021-12-09 08:30:57.8610 8=FIX.4.2 9=68 35=0 34=298 49=JUSTETNA 52=20211209-08:30:57.861 56=TRAFIX 128=LAMP 10=144  
2021-12-09 08:31:17.8632 8=FIX.4.2 9=59 35=0 34=299 49=TRAFIX 52=20211209-08:31:17.869 56=JUSTETNA 10=147  
2021-12-09 08:31:27.8966 8=FIX.4.2 9=68 35=0 34=299 49=JUSTETNA 52=20211209-08:31:27.896 56=TRAFIX 128=LAMP 10=151  
2021-12-09 08:31:47.9095 8=FIX.4.2 9=59 35=0 34=300 49=TRAFIX 52=20211209-08:31:47.905 56=JUSTETNA 10=124  
2021-12-09 08:31:57.9792 8=FIX.4.2 9=68 35=0 34=300 49=JUSTETNA 52=20211209-08:31:57.979 56=TRAFIX 128=LAMP 10=139  
2021-12-09 08:32:17.9812 8=FIX.4.2 9=59 35=0 34=301 49=TRAFIX 52=20211209-08:32:17.989 56=JUSTETNA 10=135  
2021-12-09 08:32:28.0145 8=FIX.4.2 9=68 35=0 34=301 49=JUSTETNA 52=20211209-08:32:28.014 56=TRAFIX 128=LAMP 10=119  
2021-12-09 08:32:47.0240 8=FIX.4.2 9=59 35=0 34=302 49=TRAFIX 52=20211209-08:32:47.022 56=JUSTETNA 10=117  
2021-12-09 08:32:58.0766 8=FIX.4.2 9=68 35=0 34=302 49=JUSTETNA 52=20211209-08:32:58.076 56=TRAFIX 128=LAMP 10=131  
2021-12-09 08:33:17.0822 8=FIX.4.2 9=59 35=0 34=303 49=TRAFIX 52=20211209-08:33:17.084 56=JUSTETNA 10=124  
2021-12-09 08:33:28.1110 8=FIX.4.2 9=68 35=0 34=303 49=JUSTETNA 52=20211209-08:33:28.111 56=TRAFIX 128=LAMP 10=120  
2021-12-09 08:33:47.1215 8=FIX.4.2 9=59 35=0 34=304 49=TRAFIX 52=20211209-08:33:47.121 56=JUSTETNA 10=120  
2021-12-09 08:33:58.1886 8=FIX.4.2 9=68 35=0 34=304 49=JUSTETNA 52=20211209-08:33:58.188 56=TRAFIX 128=LAMP 10=138  
2021-12-09 08:34:17.1942 8=FIX.4.2 9=59 35=0 34=305 49=TRAFIX 52=20211209-08:34:17.196 56=JUSTETNA 10=131  
2021-12-09 08:34:28.2254 8=FIX.4.2 9=68 35=0 34=305 49=JUSTETNA 52=20211209-08:34:28.225 56=TRAFIX 128=LAMP 10=129  
2021-12-09 08:34:47.2318 8=FIX.4.2 9=59 35=0 34=306 49=TRAFIX 52=20211209-08:34:47.235 56=JUSTETNA 10=129  
2021-12-09 08:34:58.2742 8=FIX.4.2 9=68 35=0 34=306 49=JUSTETNA 52=20211209-08:34:58.274 56=TRAFIX 128=LAMP 10=137  
2021-12-09 08:35:17.2767 8=FIX.4.2 9=59 35=0 34=307 49=TRAFIX 52=20211209-08:35:17.282 56=JUSTETNA 10=130  
2021-12-09 08:35:28.3310 8=FIX.4.2 9=68 35=0 34=307 49=JUSTETNA 52=20211209-08:35:28.331 56=TRAFIX 128=LAMP 10=130  
2021-12-09 08:35:47.3324 8=FIX.4.2 9=59 35=0 34=308 49=TRAFIX 52=20211209-08:35:47.339 56=JUSTETNA 10=137  
2021-12-09 08:35:58.3935 8=FIX.4.2 9=68 35=0 34=308 49=JUSTETNA 52=20211209-08:35:58.393 56=TRAFIX 128=LAMP 10=142  
2021-12-09 08:36:17.3995 8=FIX.4.2 9=59 35=0 34=309 49=TRAFIX 52=20211209-08:36:17.401 56=JUSTETNA 10=126  
2021-12-09 08:36:28.4259 8=FIX.4.2 9=68 35=0 34=309 49=JUSTETNA 52=20211209-08:36:28.425 56=TRAFIX 128=LAMP 10=137  
2021-12-09 08:36:47.4394 8=FIX.4.2 9=59 35=0 34=310 49=TRAFIX 52=20211209-08:36:47.434 56=JUSTETNA 10=127  
2021-12-09 08:36:58.4923 8=FIX.4.2 9=68 35=0 34=310 49=JUSTETNA 52=20211209-08:36:58.492 56=TRAFIX 128=LAMP 10=136  
2021-12-09 08:37:17.4953 8=FIX.4.2 9=59 35=0 34=311 49=TRAFIX 52=20211209-08:37:17.501 56=JUSTETNA 10=121  
2021-12-09 08:37:28.5225 8=FIX.4.2 9=68 35=0 34=311 49=JUSTETNA 52=20211209-08:37:28.522 56=TRAFIX 128=LAMP 10=129  
2021-12-09 08:37:47.5287 8=FIX.4.2 9=59 35=0 34=312 49=TRAFIX 52=20211209-08:37:47.532 56=JUSTETNA 10=129  
2021-12-09 08:37:58.5872 8=FIX.4.2 9=68 35=0 34=312 49=JUSTETNA 52=20211209-08:37:58.587 56=TRAFIX 128=LAMP 10=144  
2021-12-09 08:38:17.6038 8=FIX.4.2 9=59 35=0 34=313 49=TRAFIX 52=20211209-08:38:17.598 56=JUSTETNA 10=140  
2021-12-09 08:38:28.6283 8=FIX.4.2 9=68 35=0 34=313 49=JUSTETNA 52=20211209-08:38:28.628 56=TRAFIX 128=LAMP 10=139  
2021-12-09 08:38:47.6364 8=FIX.4.2 9=59 35=0 34=314 49=TRAFIX 52=20211209-08:38:47.640 56=JUSTETNA 10=132  
2021-12-09 08:38:58.6788 8=FIX.4.2 9=68 35=0 34=314 49=JUSTETNA 52=20211209-08:38:58.678 56=TRAFIX 128=LAMP 10=148  
2021-12-09 08:39:17.6841 8=FIX.4.2 9=59 35=0 34=315 49=TRAFIX 52=20211209-08:39:17.684 56=JUSTETNA 10=139  
2021-12-09 08:39:28.7085 8=FIX.4.2 9=68 35=0 34=315 49=JUSTETNA 52=20211209-08:39:28.708 56=TRAFIX 128=LAMP 10=141  
2021-12-09 08:39:47.7207 8=FIX.4.2 9=59 35=0 34=316 49=TRAFIX 52=20211209-08:39:47.716 56=JUSTETNA 10=139  
2021-12-09 08:39:58.7720 8=FIX.4.2 9=68 35=0 34=316 49=JUSTETNA 52=20211209-08:39:58.772 56=TRAFIX 128=LAMP 10=146  
2021-12-09 08:40:17.7756 8=FIX.4.2 9=59 35=0 34=317 49=TRAFIX 52=20211209-08:40:17.780 56=JUSTETNA 10=130  
2021-12-09 08:40:28.7930 8=FIX.4.2 9=68 35=0 34=317 49=JUSTETNA 52=20211209-08:40:28.793 56=TRAFIX 128=LAMP 10=139  
2021-12-09 08:40:47.8065 8=FIX.4.2 9=59 35=0 34=318 49=TRAFIX 52=20211209-08:40:47.799 56=JUSTETNA 10=144  
2021-12-09 08:40:58.8665 8=FIX.4.2 9=68 35=0 34=318 49=JUSTETNA 52=20211209-08:40:58.866 56=TRAFIX 128=LAMP 10=144  
2021-12-09 08:41:17.8689 8=FIX.4.2 9=59 35=0 34=319 49=TRAFIX 52=20211209-08:41:17.874 56=JUSTETNA 10=137  
2021-12-09 08:41:28.9178 8=FIX.4.2 9=68 35=0 34=319 49=JUSTETNA 52=20211209-08:41:28.917 56=TRAFIX 128=LAMP 10=140  
2021-12-09 08:41:47.9321 8=FIX.4.2 9=59 35=0 34=320 49=TRAFIX 52=20211209-08:41:47.926 56=JUSTETNA 10=130  
2021-12-09 08:41:59.0001 8=FIX.4.2 9=68 35=0 34=320 49=JUSTETNA 52=20211209-08:41:59.000 56=TRAFIX 128=LAMP 10=119  
2021-12-09 08:42:16.9955 8=FIX.4.2 9=59 35=0 34=321 49=TRAFIX 52=20211209-08:42:17.004 56=JUSTETNA 10=116  
2021-12-09 08:42:29.0218 8=FIX.4.2 9=68 35=0 34=321 49=JUSTETNA 52=20211209-08:42:29.021 56=TRAFIX 128=LAMP 10=121  
2021-12-09 08:42:47.0210 8=FIX.4.2 9=59 35=0 34=322 49=TRAFIX 52=20211209-08:42:47.029 56=JUSTETNA 10=127  
2021-12-09 08:42:59.0580 8=FIX.4.2 9=68 35=0 34=322 49=JUSTETNA 52=20211209-08:42:59.058 56=TRAFIX 128=LAMP 10=135  
2021-12-09 08:43:17.0635 8=FIX.4.2 9=59 35=0 34=323 49=TRAFIX 52=20211209-08:43:17.064 56=JUSTETNA 10=125  
2021-12-09 08:43:29.0915 8=FIX.4.2 9=68 35=0 34=323 49=JUSTETNA 52=20211209-08:43:29.091 56=TRAFIX 128=LAMP 10=131  
2021-12-09 08:43:47.0914 8=FIX.4.2 9=59 35=0 34=324 49=TRAFIX 52=20211209-08:43:47.097 56=JUSTETNA 10=135  
2021-12-09 08:43:59.1280 8=FIX.4.2 9=68 35=0 34=324 49=JUSTETNA 52=20211209-08:43:59.128 56=TRAFIX 128=LAMP 10=136  
2021-12-09 08:44:17.1323 8=FIX.4.2 9=59 35=0 34=325 49=TRAFIX 52=20211209-08:44:17.134 56=JUSTETNA 10=126  
2021-12-09 08:44:29.1657 8=FIX.4.2 9=68 35=0 34=325 49=JUSTETNA 52=20211209-08:44:29.165 56=TRAFIX 128=LAMP 10=136  
2021-12-09 08:44:47.1716 8=FIX.4.2 9=59 35=0 34=326 49=TRAFIX 52=20211209-08:44:47.173 56=JUSTETNA 10=133  
2021-12-09 08:44:59.2214 8=FIX.4.2 9=68 35=0 34=326 49=JUSTETNA 52=20211209-08:44:59.221 56=TRAFIX 128=LAMP 10=133  
2021-12-09 08:45:17.2311 8=FIX.4.2 9=59 35=0 34=327 49=TRAFIX 52=20211209-08:45:17.231 56=JUSTETNA 10=127  
2021-12-09 08:45:29.2545 8=FIX.4.2 9=68 35=0 34=327 49=JUSTETNA 52=20211209-08:45:29.254 56=TRAFIX 128=LAMP 10=138  
2021-12-09 08:45:47.2663 8=FIX.4.2 9=59 35=0 34=328 49=TRAFIX 52=20211209-08:45:47.264 56=JUSTETNA 10=137  
2021-12-09 08:45:59.3044 8=FIX.4.2 9=68 35=0 34=328 49=JUSTETNA 52=20211209-08:45:59.304 56=TRAFIX 128=LAMP 10=138  
2021-12-09 08:46:17.3095 8=FIX.4.2 9=59 35=0 34=329 49=TRAFIX 52=20211209-08:46:17.312 56=JUSTETNA 10=130  
2021-12-09 08:46:29.3434 8=FIX.4.2 9=68 35=0 34=329 49=JUSTETNA 52=20211209-08:46:29.343 56=TRAFIX 128=LAMP 10=140  
2021-12-09 08:46:47.3525 8=FIX.4.2 9=59 35=0 34=330 49=TRAFIX 52=20211209-08:46:47.350 56=JUSTETNA 10=127  
2021-12-09 08:46:59.4233 8=FIX.4.2 9=68 35=0 34=330 49=JUSTETNA 52=20211209-08:46:59.423 56=TRAFIX 128=LAMP 10=134  
2021-12-09 08:47:17.4359 8=FIX.4.2 9=59 35=0 34=331 49=TRAFIX 52=20211209-08:47:17.430 56=JUSTETNA 10=125  
2021-12-09 08:47:29.4898 8=FIX.4.2 9=68 35=0 34=331 49=JUSTETNA 52=20211209-08:47:29.489 56=TRAFIX 128=LAMP 10=145  
2021-12-09 08:47:47.5002 8=FIX.4.2 9=59 35=0 34=332 49=TRAFIX 52=20211209-08:47:47.497 56=JUSTETNA 10=142  
2021-12-09 08:47:59.5666 8=FIX.4.2 9=68 35=0 34=332 49=JUSTETNA 52=20211209-08:47:59.566 56=TRAFIX 128=LAMP 10=145  
2021-12-09 08:48:17.5789 8=FIX.4.2 9=59 35=0 34=333 49=TRAFIX 52=20211209-08:48:17.573 56=JUSTETNA 10=136  
2021-12-09 08:48:29.6213 8=FIX.4.2 9=68 35=0 34=333 49=JUSTETNA 52=20211209-08:48:29.621 56=TRAFIX 128=LAMP 10=136  
2021-12-09 08:48:47.6349 8=FIX.4.2 9=59 35=0 34=334 49=TRAFIX 52=20211209-08:48:47.628 56=JUSTETNA 10=141  
2021-12-09 08:48:59.6727 8=FIX.4.2 9=68 35=0 34=334 49=JUSTETNA 52=20211209-08:48:59.672 56=TRAFIX 128=LAMP 10=146  
2021-12-09 08:49:17.6725 8=FIX.4.2 9=59 35=0 34=335 49=TRAFIX 52=20211209-08:49:17.679 56=JUSTETNA 10=146  
2021-12-09 08:49:29.7290 8=FIX.4.2 9=68 35=0 34=335 49=JUSTETNA 52=20211209-08:49:29.729 56=TRAFIX 128=LAMP 10=148  
2021-12-09 08:49:47.7321 8=FIX.4.2 9=59 35=0 34=336 49=TRAFIX 52=20211209-08:49:47.738 56=JUSTETNA 10=146  
2021-12-09 08:49:59.7894 8=FIX.4.2 9=68 35=0 34=336 49=JUSTETNA 52=20211209-08:49:59.789 56=TRAFIX 128=LAMP 10=158  
2021-12-09 08:50:17.7979 8=FIX.4.2 9=59 35=0 34=337 49=TRAFIX 52=20211209-08:50:17.798 56=JUSTETNA 10=142  
2021-12-09 08:50:29.8382 8=FIX.4.2 9=68 35=0 34=337 49=JUSTETNA 52=20211209-08:50:29.838 56=TRAFIX 128=LAMP 10=143  
2021-12-09 08:50:47.8538 8=FIX.4.2 9=59 35=0 34=338 49=TRAFIX 52=20211209-08:50:47.847 56=JUSTETNA 10=141  
2021-12-09 08:50:59.9162 8=FIX.4.2 9=68 35=0 34=338 49=JUSTETNA 52=20211209-08:50:59.916 56=TRAFIX 128=LAMP 10=144  
2021-12-09 08:51:17.9314 8=FIX.4.2 9=59 35=0 34=339 49=TRAFIX 52=20211209-08:51:17.926 56=JUSTETNA 10=138  
2021-12-09 08:51:29.9734 8=FIX.4.2 9=68 35=0 34=339 49=JUSTETNA 52=20211209-08:51:29.973 56=TRAFIX 128=LAMP 10=146  
2021-12-09 08:51:47.9788 8=FIX.4.2 9=59 35=0 34=340 49=TRAFIX 52=20211209-08:51:47.980 56=JUSTETNA 10=133  
2021-12-09 08:52:00.0324 8=FIX.4.2 9=68 35=0 34=340 49=JUSTETNA 52=20211209-08:52:00.032 56=TRAFIX 128=LAMP 10=114  
2021-12-09 08:52:17.0416 8=FIX.4.2 9=59 35=0 34=341 49=TRAFIX 52=20211209-08:52:17.040 56=JUSTETNA 10=119  
2021-12-09 08:52:30.1166 8=FIX.4.2 9=68 35=0 34=341 49=JUSTETNA 52=20211209-08:52:30.116 56=TRAFIX 128=LAMP 10=121  
2021-12-09 08:52:47.1192 8=FIX.4.2 9=59 35=0 34=342 49=TRAFIX 52=20211209-08:52:47.123 56=JUSTETNA 10=125  
2021-12-09 08:53:00.1811 8=FIX.4.2 9=68 35=0 34=342 49=JUSTETNA 52=20211209-08:53:00.181 56=TRAFIX 128=LAMP 10=122  
2021-12-09 08:53:17.1821 8=FIX.4.2 9=59 35=0 34=343 49=TRAFIX 52=20211209-08:53:17.187 56=JUSTETNA 10=134  
2021-12-09 08:53:30.2228 8=FIX.4.2 9=68 35=0 34=343 49=JUSTETNA 52=20211209-08:53:30.222 56=TRAFIX 128=LAMP 10=122  
2021-12-09 08:53:47.2260 8=FIX.4.2 9=59 35=0 34=344 49=TRAFIX 52=20211209-08:53:47.227 56=JUSTETNA 10=133  
2021-12-09 08:54:00.2819 8=FIX.4.2 9=68 35=0 34=344 49=JUSTETNA 52=20211209-08:54:00.281 56=TRAFIX 128=LAMP 10=126  
2021-12-09 08:54:17.2896 8=FIX.4.2 9=59 35=0 34=345 49=TRAFIX 52=20211209-08:54:17.290 56=JUSTETNA 10=132  
2021-12-09 08:54:30.3355 8=FIX.4.2 9=68 35=0 34=345 49=JUSTETNA 52=20211209-08:54:30.335 56=TRAFIX 128=LAMP 10=130  
2021-12-09 08:54:47.3354 8=FIX.4.2 9=59 35=0 34=346 49=TRAFIX 52=20211209-08:54:47.342 56=JUSTETNA 10=134  
2021-12-09 08:55:00.3953 8=FIX.4.2 9=68 35=0 34=346 49=JUSTETNA 52=20211209-08:55:00.395 56=TRAFIX 128=LAMP 10=135  
2021-12-09 08:55:17.4050 8=FIX.4.2 9=59 35=0 34=347 49=TRAFIX 52=20211209-08:55:17.402 56=JUSTETNA 10=130  
2021-12-09 08:55:30.4552 8=FIX.4.2 9=68 35=0 34=347 49=JUSTETNA 52=20211209-08:55:30.455 56=TRAFIX 128=LAMP 10=136  
2021-12-09 08:55:47.4672 8=FIX.4.2 9=59 35=0 34=348 49=TRAFIX 52=20211209-08:55:47.460 56=JUSTETNA 10=138  
2021-12-09 08:56:00.5238 8=FIX.4.2 9=68 35=0 34=348 49=JUSTETNA 52=20211209-08:56:00.523 56=TRAFIX 128=LAMP 10=131  
2021-12-09 08:56:17.5351 8=FIX.4.2 9=59 35=0 34=349 49=TRAFIX 52=20211209-08:56:17.533 56=JUSTETNA 10=138  
2021-12-09 08:56:30.5751 8=FIX.4.2 9=68 35=0 34=349 49=JUSTETNA 52=20211209-08:56:30.575 56=TRAFIX 128=LAMP 10=142  
2021-12-09 08:56:47.5797 8=FIX.4.2 9=59 35=0 34=350 49=TRAFIX 52=20211209-08:56:47.582 56=JUSTETNA 10=137  
2021-12-09 08:57:00.6350 8=FIX.4.2 9=68 35=0 34=350 49=JUSTETNA 52=20211209-08:57:00.635 56=TRAFIX 128=LAMP 10=129  
2021-12-09 08:57:17.6467 8=FIX.4.2 9=59 35=0 34=351 49=TRAFIX 52=20211209-08:57:17.641 56=JUSTETNA 10=132  
2021-12-09 08:57:30.7074 8=FIX.4.2 9=68 35=0 34=351 49=JUSTETNA 52=20211209-08:57:30.707 56=TRAFIX 128=LAMP 10=133  
2021-12-09 08:57:47.7189 8=FIX.4.2 9=59 35=0 34=352 49=TRAFIX 52=20211209-08:57:47.712 56=JUSTETNA 10=135  
2021-12-09 08:58:00.7734 8=FIX.4.2 9=68 35=0 34=352 49=JUSTETNA 52=20211209-08:58:00.773 56=TRAFIX 128=LAMP 10=135  
2021-12-09 08:58:17.7747 8=FIX.4.2 9=59 35=0 34=353 49=TRAFIX 52=20211209-08:58:17.779 56=JUSTETNA 10=147  
2021-12-09 08:58:30.8102 8=FIX.4.2 9=68 35=0 34=353 49=JUSTETNA 52=20211209-08:58:30.810 56=TRAFIX 128=LAMP 10=131  
2021-12-09 08:58:47.8164 8=FIX.4.2 9=59 35=0 34=354 49=TRAFIX 52=20211209-08:58:47.816 56=JUSTETNA 10=143  
2021-12-09 08:59:00.8798 8=FIX.4.2 9=68 35=0 34=354 49=JUSTETNA 52=20211209-08:59:00.879 56=TRAFIX 128=LAMP 10=145  
2021-12-09 08:59:17.8826 8=FIX.4.2 9=59 35=0 34=355 49=TRAFIX 52=20211209-08:59:17.885 56=JUSTETNA 10=148  
2021-12-09 08:59:30.9345 8=FIX.4.2 9=68 35=0 34=355 49=JUSTETNA 52=20211209-08:59:30.934 56=TRAFIX 128=LAMP 10=141  
2021-12-09 08:59:47.9399 8=FIX.4.2 9=59 35=0 34=356 49=TRAFIX 52=20211209-08:59:47.939 56=JUSTETNA 10=152  
2021-12-09 09:00:00.9824 8=FIX.4.2 9=68 35=0 34=356 49=JUSTETNA 52=20211209-09:00:00.982 56=TRAFIX 128=LAMP 10=129  
2021-12-09 09:00:17.9864 8=FIX.4.2 9=59 35=0 34=357 49=TRAFIX 52=20211209-09:00:17.990 56=JUSTETNA 10=134  
2021-12-09 09:00:31.0334 8=FIX.4.2 9=68 35=0 34=357 49=JUSTETNA 52=20211209-09:00:31.033 56=TRAFIX 128=LAMP 10=121  
2021-12-09 09:00:47.0361 8=FIX.4.2 9=59 35=0 34=358 49=TRAFIX 52=20211209-09:00:47.041 56=JUSTETNA 10=125  
2021-12-09 09:01:01.0718 8=FIX.4.2 9=68 35=0 34=358 49=JUSTETNA 52=20211209-09:01:01.071 56=TRAFIX 128=LAMP 10=122  
2021-12-09 09:01:17.0825 8=FIX.4.2 9=59 35=0 34=359 49=TRAFIX 52=20211209-09:01:17.078 56=JUSTETNA 10=134  
2021-12-09 09:01:31.1299 8=FIX.4.2 9=68 35=0 34=359 49=JUSTETNA 52=20211209-09:01:31.129 56=TRAFIX 128=LAMP 10=130  
2021-12-09 09:01:47.1370 8=FIX.4.2 9=59 35=0 34=360 49=TRAFIX 52=20211209-09:01:47.134 56=JUSTETNA 10=122  
2021-12-09 09:02:01.2142 8=FIX.4.2 9=68 35=0 34=360 49=JUSTETNA 52=20211209-09:02:01.214 56=TRAFIX 128=LAMP 10=115  
2021-12-09 09:02:17.2285 8=FIX.4.2 9=59 35=0 34=361 49=TRAFIX 52=20211209-09:02:17.221 56=JUSTETNA 10=118  
2021-12-09 09:02:31.2737 8=FIX.4.2 9=68 35=0 34=361 49=JUSTETNA 52=20211209-09:02:31.273 56=TRAFIX 128=LAMP 10=124  
2021-12-09 09:02:47.2770 8=FIX.4.2 9=59 35=0 34=362 49=TRAFIX 52=20211209-09:02:47.279 56=JUSTETNA 10=135  
2021-12-09 09:03:01.3293 8=FIX.4.2 9=68 35=0 34=362 49=JUSTETNA 52=20211209-09:03:01.329 56=TRAFIX 128=LAMP 10=125  
2021-12-09 09:03:17.3374 8=FIX.4.2 9=59 35=0 34=363 49=TRAFIX 52=20211209-09:03:17.336 56=JUSTETNA 10=128  
2021-12-09 09:03:31.3912 8=FIX.4.2 9=68 35=0 34=363 49=JUSTETNA 52=20211209-09:03:31.391 56=TRAFIX 128=LAMP 10=128  
2021-12-09 09:03:47.4019 8=FIX.4.2 9=59 35=0 34=364 49=TRAFIX 52=20211209-09:03:47.397 56=JUSTETNA 10=139  
2021-12-09 09:04:01.4652 8=FIX.4.2 9=68 35=0 34=364 49=JUSTETNA 52=20211209-09:04:01.465 56=TRAFIX 128=LAMP 10=129  
2021-12-09 09:04:17.4690 8=FIX.4.2 9=59 35=0 34=365 49=TRAFIX 52=20211209-09:04:17.469 56=JUSTETNA 10=138  
2021-12-09 09:04:31.5164 8=FIX.4.2 9=68 35=0 34=365 49=JUSTETNA 52=20211209-09:04:31.516 56=TRAFIX 128=LAMP 10=130  
2021-12-09 09:04:47.5183 8=FIX.4.2 9=59 35=0 34=366 49=TRAFIX 52=20211209-09:04:47.521 56=JUSTETNA 10=131  
2021-12-09 09:05:01.5745 8=FIX.4.2 9=68 35=0 34=366 49=JUSTETNA 52=20211209-09:05:01.574 56=TRAFIX 128=LAMP 10=133  
2021-12-09 09:05:17.5816 8=FIX.4.2 9=59 35=0 34=367 49=TRAFIX 52=20211209-09:05:17.580 56=JUSTETNA 10=135  
2021-12-09 09:05:31.6422 8=FIX.4.2 9=68 35=0 34=367 49=JUSTETNA 52=20211209-09:05:31.642 56=TRAFIX 128=LAMP 10=133  
2021-12-09 09:05:47.6551 8=FIX.4.2 9=59 35=0 34=368 49=TRAFIX 52=20211209-09:05:47.647 56=JUSTETNA 10=143  
2021-12-09 09:06:01.7321 8=FIX.4.2 9=68 35=0 34=368 49=JUSTETNA 52=20211209-09:06:01.731 56=TRAFIX 128=LAMP 10=131  
2021-12-09 09:06:17.7280 8=FIX.4.2 9=59 35=0 34=369 49=TRAFIX 52=20211209-09:06:17.735 56=JUSTETNA 10=140  
2021-12-09 09:06:31.7824 8=FIX.4.2 9=68 35=0 34=369 49=JUSTETNA 52=20211209-09:06:31.782 56=TRAFIX 128=LAMP 10=141  
2021-12-09 09:06:47.7830 8=FIX.4.2 9=59 35=0 34=370 49=TRAFIX 52=20211209-09:06:47.788 56=JUSTETNA 10=143  
2021-12-09 09:07:01.8488 8=FIX.4.2 9=68 35=0 34=370 49=JUSTETNA 52=20211209-09:07:01.848 56=TRAFIX 128=LAMP 10=134  
2021-12-09 09:07:17.8484 8=FIX.4.2 9=59 35=0 34=371 49=TRAFIX 52=20211209-09:07:17.855 56=JUSTETNA 10=137  
2021-12-09 09:07:31.9234 8=FIX.4.2 9=68 35=0 34=371 49=JUSTETNA 52=20211209-09:07:31.923 56=TRAFIX 128=LAMP 10=132  
2021-12-09 09:07:47.9267 8=FIX.4.2 9=59 35=0 34=372 49=TRAFIX 52=20211209-09:07:47.928 56=JUSTETNA 10=142  
2021-12-09 09:08:02.0100 8=FIX.4.2 9=68 35=0 34=372 49=JUSTETNA 52=20211209-09:08:02.010 56=TRAFIX 128=LAMP 10=119  
2021-12-09 09:08:17.0127 8=FIX.4.2 9=59 35=0 34=373 49=TRAFIX 52=20211209-09:08:17.017 56=JUSTETNA 10=130  
2021-12-09 09:08:32.0847 8=FIX.4.2 9=68 35=0 34=373 49=JUSTETNA 52=20211209-09:08:32.084 56=TRAFIX 128=LAMP 10=134  
2021-12-09 09:08:47.0897 8=FIX.4.2 9=59 35=0 34=374 49=TRAFIX 52=20211209-09:08:47.090 56=JUSTETNA 10=135  
2021-12-09 09:09:02.1686 8=FIX.4.2 9=68 35=0 34=374 49=JUSTETNA 52=20211209-09:09:02.168 56=TRAFIX 128=LAMP 10=136  
2021-12-09 09:09:17.1763 8=FIX.4.2 9=59 35=0 34=375 49=TRAFIX 52=20211209-09:09:17.175 56=JUSTETNA 10=138  
2021-12-09 09:09:32.2180 8=FIX.4.2 9=68 35=0 34=375 49=JUSTETNA 52=20211209-09:09:32.218 56=TRAFIX 128=LAMP 10=136  
2021-12-09 09:09:47.2318 8=FIX.4.2 9=59 35=0 34=376 49=TRAFIX 52=20211209-09:09:47.224 56=JUSTETNA 10=137  
2021-12-09 09:10:02.3145 8=FIX.4.2 9=68 35=0 34=376 49=JUSTETNA 52=20211209-09:10:02.314 56=TRAFIX 128=LAMP 10=123  
2021-12-09 09:10:17.3251 8=FIX.4.2 9=59 35=0 34=377 49=TRAFIX 52=20211209-09:10:17.322 56=JUSTETNA 10=126  
2021-12-09 09:10:32.4075 8=FIX.4.2 9=68 35=0 34=377 49=JUSTETNA 52=20211209-09:10:32.407 56=TRAFIX 128=LAMP 10=130  
2021-12-09 09:10:47.4042 8=FIX.4.2 9=59 35=0 34=378 49=TRAFIX 52=20211209-09:10:47.410 56=JUSTETNA 10=128  
2021-12-09 09:11:02.4708 8=FIX.4.2 9=68 35=0 34=378 49=JUSTETNA 52=20211209-09:11:02.470 56=TRAFIX 128=LAMP 10=129  
2021-12-09 09:11:17.4800 8=FIX.4.2 9=59 35=0 34=379 49=TRAFIX 52=20211209-09:11:17.472 56=JUSTETNA 10=135  
2021-12-09 09:11:32.5350 8=FIX.4.2 9=68 35=0 34=379 49=JUSTETNA 52=20211209-09:11:32.535 56=TRAFIX 128=LAMP 10=135  
2021-12-09 09:11:47.5430 8=FIX.4.2 9=59 35=0 34=380 49=TRAFIX 52=20211209-09:11:47.538 56=JUSTETNA 10=133  
2021-12-09 09:12:02.6340 8=FIX.4.2 9=68 35=0 34=380 49=JUSTETNA 52=20211209-09:12:02.634 56=TRAFIX 128=LAMP 10=125  
2021-12-09 09:12:17.6366 8=FIX.4.2 9=59 35=0 34=381 49=TRAFIX 52=20211209-09:12:17.639 56=JUSTETNA 10=134  
2021-12-09 09:12:32.7072 8=FIX.4.2 9=68 35=0 34=381 49=JUSTETNA 52=20211209-09:12:32.707 56=TRAFIX 128=LAMP 10=130  
2021-12-09 09:12:47.7125 8=FIX.4.2 9=59 35=0 34=382 49=TRAFIX 52=20211209-09:12:47.713 56=JUSTETNA 10=131  
2021-12-09 09:13:02.7883 8=FIX.4.2 9=68 35=0 34=382 49=JUSTETNA 52=20211209-09:13:02.788 56=TRAFIX 128=LAMP 10=138  
2021-12-09 09:13:17.7943 8=FIX.4.2 9=59 35=0 34=383 49=TRAFIX 52=20211209-09:13:17.793 56=JUSTETNA 10=138  
2021-12-09 09:13:32.8550 8=FIX.4.2 9=68 35=0 34=383 49=JUSTETNA 52=20211209-09:13:32.855 56=TRAFIX 128=LAMP 10=137  
2021-12-09 09:13:47.8648 8=FIX.4.2 9=59 35=0 34=384 49=TRAFIX 52=20211209-09:13:47.860 56=JUSTETNA 10=137  
2021-12-09 09:14:02.9294 8=FIX.4.2 9=68 35=0 34=384 49=JUSTETNA 52=20211209-09:14:02.929 56=TRAFIX 128=LAMP 10=138  
2021-12-09 09:14:17.9285 8=FIX.4.2 9=59 35=0 34=385 49=TRAFIX 52=20211209-09:14:17.933 56=JUSTETNA 10=137  
2021-12-09 09:14:33.0091 8=FIX.4.2 9=68 35=0 34=385 49=JUSTETNA 52=20211209-09:14:33.009 56=TRAFIX 128=LAMP 10=132  
2021-12-09 09:14:47.0158 8=FIX.4.2 9=59 35=0 34=386 49=TRAFIX 52=20211209-09:14:47.012 56=JUSTETNA 10=129  
2021-12-09 09:15:03.0663 8=FIX.4.2 9=68 35=0 34=386 49=JUSTETNA 52=20211209-09:15:03.066 56=TRAFIX 128=LAMP 10=134  
2021-12-09 09:15:17.0547 8=FIX.4.2 9=59 35=0 34=387 49=TRAFIX 52=20211209-09:15:17.071 56=JUSTETNA 10=133  
2021-12-09 09:15:33.1130 8=FIX.4.2 9=68 35=0 34=387 49=JUSTETNA 52=20211209-09:15:33.113 56=TRAFIX 128=LAMP 10=131  
2021-12-09 09:15:47.1115 8=FIX.4.2 9=59 35=0 34=388 49=TRAFIX 52=20211209-09:15:47.131 56=JUSTETNA 10=134  
2021-12-09 09:16:03.2141 8=FIX.4.2 9=68 35=0 34=388 49=JUSTETNA 52=20211209-09:16:03.214 56=TRAFIX 128=LAMP 10=132  
2021-12-09 09:16:17.2216 8=FIX.4.2 9=59 35=0 34=389 49=TRAFIX 52=20211209-09:16:17.232 56=JUSTETNA 10=135  
2021-12-09 09:16:33.3236 8=FIX.4.2 9=68 35=0 34=389 49=JUSTETNA 52=20211209-09:16:33.323 56=TRAFIX 128=LAMP 10=137  
2021-12-09 09:16:47.3298 8=FIX.4.2 9=59 35=0 34=390 49=TRAFIX 52=20211209-09:16:47.332 56=JUSTETNA 10=131  
2021-12-09 09:17:03.4038 8=FIX.4.2 9=68 35=0 34=390 49=JUSTETNA 52=20211209-09:17:03.403 56=TRAFIX 128=LAMP 10=126  
2021-12-09 09:17:17.4165 8=FIX.4.2 9=59 35=0 34=391 49=TRAFIX 52=20211209-09:17:17.408 56=JUSTETNA 10=134  
2021-12-09 09:17:33.4889 8=FIX.4.2 9=68 35=0 34=391 49=JUSTETNA 52=20211209-09:17:33.488 56=TRAFIX 128=LAMP 10=143  
2021-12-09 09:17:47.4994 8=FIX.4.2 9=59 35=0 34=392 49=TRAFIX 52=20211209-09:17:47.492 56=JUSTETNA 10=141  
2021-12-09 09:18:03.5485 8=FIX.4.2 9=68 35=0 34=392 49=JUSTETNA 52=20211209-09:18:03.548 56=TRAFIX 128=LAMP 10=139  
2021-12-09 09:18:17.5475 8=FIX.4.2 9=59 35=0 34=393 49=TRAFIX 52=20211209-09:18:17.549 56=JUSTETNA 10=143  
2021-12-09 09:18:33.6198 8=FIX.4.2 9=68 35=0 34=393 49=JUSTETNA 52=20211209-09:18:33.619 56=TRAFIX 128=LAMP 10=142  
2021-12-09 09:18:47.6234 8=FIX.4.2 9=59 35=0 34=394 49=TRAFIX 52=20211209-09:18:47.623 56=JUSTETNA 10=140  
2021-12-09 09:19:03.6983 8=FIX.4.2 9=68 35=0 34=394 49=JUSTETNA 52=20211209-09:19:03.698 56=TRAFIX 128=LAMP 10=148  
2021-12-09 09:19:17.7061 8=FIX.4.2 9=59 35=0 34=395 49=TRAFIX 52=20211209-09:19:17.701 56=JUSTETNA 10=136  
2021-12-09 09:19:33.7792 8=FIX.4.2 9=68 35=0 34=395 49=JUSTETNA 52=20211209-09:19:33.779 56=TRAFIX 128=LAMP 10=152  
2021-12-09 09:19:47.7788 8=FIX.4.2 9=59 35=0 34=396 49=TRAFIX 52=20211209-09:19:47.783 56=JUSTETNA 10=150  
2021-12-09 09:20:03.8240 8=FIX.4.2 9=68 35=0 34=396 49=JUSTETNA 52=20211209-09:20:03.824 56=TRAFIX 128=LAMP 10=133  
2021-12-09 09:20:17.8274 8=FIX.4.2 9=59 35=0 34=397 49=TRAFIX 52=20211209-09:20:17.829 56=JUSTETNA 10=141  
2021-12-09 09:20:33.9100 8=FIX.4.2 9=68 35=0 34=397 49=JUSTETNA 52=20211209-09:20:33.910 56=TRAFIX 128=LAMP 10=133  
2021-12-09 09:20:47.9206 8=FIX.4.2 9=59 35=0 34=398 49=TRAFIX 52=20211209-09:20:47.914 56=JUSTETNA 10=140  
2021-12-09 09:21:03.9990 8=FIX.4.2 9=68 35=0 34=398 49=JUSTETNA 52=20211209-09:21:03.999 56=TRAFIX 128=LAMP 10=149  
2021-12-09 09:21:17.0049 8=FIX.4.2 9=59 35=0 34=399 49=TRAFIX 52=20211209-09:21:17.003 56=JUSTETNA 10=128  
2021-12-09 09:21:34.0705 8=FIX.4.2 9=68 35=0 34=399 49=JUSTETNA 52=20211209-09:21:34.070 56=TRAFIX 128=LAMP 10=134  
2021-12-09 09:21:47.0667 8=FIX.4.2 9=59 35=0 34=400 49=TRAFIX 52=20211209-09:21:47.072 56=JUSTETNA 10=120  
2021-12-09 09:22:04.1710 8=FIX.4.2 9=68 35=0 34=400 49=JUSTETNA 52=20211209-09:22:04.171 56=TRAFIX 128=LAMP 10=117  
2021-12-09 09:22:17.1670 8=FIX.4.2 9=59 35=0 34=401 49=TRAFIX 52=20211209-09:22:17.171 56=JUSTETNA 10=119  
2021-12-09 09:22:34.2465 8=FIX.4.2 9=68 35=0 34=401 49=JUSTETNA 52=20211209-09:22:34.246 56=TRAFIX 128=LAMP 10=124  
2021-12-09 09:22:47.2488 8=FIX.4.2 9=59 35=0 34=402 49=TRAFIX 52=20211209-09:22:47.248 56=JUSTETNA 10=128  
2021-12-09 09:23:04.3139 8=FIX.4.2 9=68 35=0 34=402 49=JUSTETNA 52=20211209-09:23:04.313 56=TRAFIX 128=LAMP 10=118  
2021-12-09 09:23:17.3138 8=FIX.4.2 9=59 35=0 34=403 49=TRAFIX 52=20211209-09:23:17.318 56=JUSTETNA 10=125  
2021-12-09 09:23:34.4180 8=FIX.4.2 9=68 35=0 34=403 49=JUSTETNA 52=20211209-09:23:34.418 56=TRAFIX 128=LAMP 10=128  
2021-12-09 09:23:47.4159 8=FIX.4.2 9=59 35=0 34=404 49=TRAFIX 52=20211209-09:23:47.419 56=JUSTETNA 10=131  
2021-12-09 09:24:04.5252 8=FIX.4.2 9=68 35=0 34=404 49=JUSTETNA 52=20211209-09:24:04.525 56=TRAFIX 128=LAMP 10=126  
2021-12-09 09:24:17.5283 8=FIX.4.2 9=59 35=0 34=405 49=TRAFIX 52=20211209-09:24:17.529 56=JUSTETNA 10=132  
2021-12-09 09:24:34.5803 8=FIX.4.2 9=68 35=0 34=405 49=JUSTETNA 52=20211209-09:24:34.580 56=TRAFIX 128=LAMP 10=131  
2021-12-09 09:24:47.5788 8=FIX.4.2 9=59 35=0 34=406 49=TRAFIX 52=20211209-09:24:47.585 56=JUSTETNA 10=138  
2021-12-09 09:25:04.6263 8=FIX.4.2 9=68 35=0 34=406 49=JUSTETNA 52=20211209-09:25:04.626 56=TRAFIX 128=LAMP 10=131  
2021-12-09 09:25:17.6266 8=FIX.4.2 9=59 35=0 34=407 49=TRAFIX 52=20211209-09:25:17.629 56=JUSTETNA 10=136  
2021-12-09 09:25:34.7041 8=FIX.4.2 9=68 35=0 34=407 49=JUSTETNA 52=20211209-09:25:34.704 56=TRAFIX 128=LAMP 10=132  
2021-12-09 09:25:47.7158 8=FIX.4.2 9=59 35=0 34=408 49=TRAFIX 52=20211209-09:25:47.709 56=JUSTETNA 10=139  
2021-12-09 09:26:04.7615 8=FIX.4.2 9=68 35=0 34=408 49=JUSTETNA 52=20211209-09:26:04.761 56=TRAFIX 128=LAMP 10=134  
2021-12-09 09:26:17.7686 8=FIX.4.2 9=59 35=0 34=409 49=TRAFIX 52=20211209-09:26:17.764 56=JUSTETNA 10=139  
2021-12-09 09:26:34.8266 8=FIX.4.2 9=68 35=0 34=409 49=JUSTETNA 52=20211209-09:26:34.826 56=TRAFIX 128=LAMP 10=140  
2021-12-09 09:26:47.8296 8=FIX.4.2 9=59 35=0 34=410 49=TRAFIX 52=20211209-09:26:47.829 56=JUSTETNA 10=136  
2021-12-09 09:27:04.9122 8=FIX.4.2 9=68 35=0 34=410 49=JUSTETNA 52=20211209-09:27:04.912 56=TRAFIX 128=LAMP 10=126  
2021-12-09 09:27:17.9131 8=FIX.4.2 9=59 35=0 34=411 49=TRAFIX 52=20211209-09:27:17.915 56=JUSTETNA 10=131  
2021-12-09 09:27:34.9567 8=FIX.4.2 9=68 35=0 34=411 49=JUSTETNA 52=20211209-09:27:34.956 56=TRAFIX 128=LAMP 10=138  
2021-12-09 09:27:47.9672 8=FIX.4.2 9=59 35=0 34=412 49=TRAFIX 52=20211209-09:27:47.959 56=JUSTETNA 10=143  
2021-12-09 09:28:05.0105 8=FIX.4.2 9=68 35=0 34=412 49=JUSTETNA 52=20211209-09:28:05.010 56=TRAFIX 128=LAMP 10=119  
2021-12-09 09:28:17.0167 8=FIX.4.2 9=59 35=0 34=413 49=TRAFIX 52=20211209-09:28:17.013 56=JUSTETNA 10=123  
2021-12-09 09:28:35.0849 8=FIX.4.2 9=68 35=0 34=413 49=JUSTETNA 52=20211209-09:28:35.084 56=TRAFIX 128=LAMP 10=134  
2021-12-09 09:28:47.0908 8=FIX.4.2 9=59 35=0 34=414 49=TRAFIX 52=20211209-09:28:47.088 56=JUSTETNA 10=139  
2021-12-09 09:29:05.1635 8=FIX.4.2 9=68 35=0 34=414 49=JUSTETNA 52=20211209-09:29:05.163 56=TRAFIX 128=LAMP 10=131  
2021-12-09 09:29:17.1706 8=FIX.4.2 9=59 35=0 34=415 49=TRAFIX 52=20211209-09:29:17.167 56=JUSTETNA 10=136  
2021-12-09 09:29:35.2734 8=FIX.4.2 9=68 35=0 34=415 49=JUSTETNA 52=20211209-09:29:35.273 56=TRAFIX 128=LAMP 10=137  
2021-12-09 09:29:47.2756 8=FIX.4.2 9=59 35=0 34=416 49=TRAFIX 52=20211209-09:29:47.277 56=JUSTETNA 10=142  
2021-12-09 09:30:05.4063 8=FIX.4.2 9=68 35=0 34=416 49=JUSTETNA 52=20211209-09:30:05.406 56=TRAFIX 128=LAMP 10=125  
2021-12-09 09:30:17.4180 8=FIX.4.2 9=59 35=0 34=417 49=TRAFIX 52=20211209-09:30:17.409 56=JUSTETNA 10=129  
2021-12-09 09:30:35.5388 8=FIX.4.2 9=68 35=0 34=417 49=JUSTETNA 52=20211209-09:30:35.538 56=TRAFIX 128=LAMP 10=135  
2021-12-09 09:30:47.5355 8=FIX.4.2 9=59 35=0 34=418 49=TRAFIX 52=20211209-09:30:47.540 56=JUSTETNA 10=129  
2021-12-09 09:31:05.6259 8=FIX.4.2 9=68 35=0 34=418 49=JUSTETNA 52=20211209-09:31:05.625 56=TRAFIX 128=LAMP 10=131  
2021-12-09 09:31:17.6322 8=FIX.4.2 9=59 35=0 34=419 49=TRAFIX 52=20211209-09:31:17.628 56=JUSTETNA 10=135  
2021-12-09 09:31:35.7414 8=FIX.4.2 9=68 35=0 34=419 49=JUSTETNA 52=20211209-09:31:35.741 56=TRAFIX 128=LAMP 10=134  
2021-12-09 09:31:47.7491 8=FIX.4.2 9=59 35=0 34=420 49=TRAFIX 52=20211209-09:31:47.742 56=JUSTETNA 10=127  
2021-12-09 09:32:05.8250 8=FIX.4.2 9=68 35=0 34=420 49=JUSTETNA 52=20211209-09:32:05.825 56=TRAFIX 128=LAMP 10=127  
2021-12-09 09:32:17.8300 8=FIX.4.2 9=59 35=0 34=421 49=TRAFIX 52=20211209-09:32:17.824 56=JUSTETNA 10=127  
2021-12-09 09:32:35.8811 8=FIX.4.2 9=68 35=0 34=421 49=JUSTETNA 52=20211209-09:32:35.881 56=TRAFIX 128=LAMP 10=133  
2021-12-09 09:32:47.8869 8=FIX.4.2 9=59 35=0 34=422 49=TRAFIX 52=20211209-09:32:47.883 56=JUSTETNA 10=136  
2021-12-09 09:33:05.9441 8=FIX.4.2 9=68 35=0 34=422 49=JUSTETNA 52=20211209-09:33:05.944 56=TRAFIX 128=LAMP 10=132  
2021-12-09 09:33:17.9537 8=FIX.4.2 9=59 35=0 34=423 49=TRAFIX 52=20211209-09:33:17.945 56=JUSTETNA 10=134  
2021-12-09 09:33:36.0171 8=FIX.4.2 9=68 35=0 34=423 49=JUSTETNA 52=20211209-09:33:36.017 56=TRAFIX 128=LAMP 10=128  
2021-12-09 09:33:47.0151 8=FIX.4.2 9=59 35=0 34=424 49=TRAFIX 52=20211209-09:33:47.019 56=JUSTETNA 10=130  
2021-12-09 09:34:06.0983 8=FIX.4.2 9=68 35=0 34=424 49=JUSTETNA 52=20211209-09:34:06.098 56=TRAFIX 128=LAMP 10=136  
2021-12-09 09:34:17.0928 8=FIX.4.2 9=59 35=0 34=425 49=TRAFIX 52=20211209-09:34:17.098 56=JUSTETNA 10=136  
2021-12-09 09:34:36.1766 8=FIX.4.2 9=68 35=0 34=425 49=JUSTETNA 52=20211209-09:34:36.176 56=TRAFIX 128=LAMP 10=137  
2021-12-09 09:34:47.1727 8=FIX.4.2 9=59 35=0 34=426 49=TRAFIX 52=20211209-09:34:47.174 56=JUSTETNA 10=135  
2021-12-09 09:35:06.2661 8=FIX.4.2 9=68 35=0 34=426 49=JUSTETNA 52=20211209-09:35:06.266 56=TRAFIX 128=LAMP 10=136  
2021-12-09 09:35:17.2747 8=FIX.4.2 9=59 35=0 34=427 49=TRAFIX 52=20211209-09:35:17.267 56=JUSTETNA 10=137  
2021-12-09 09:35:36.3772 8=FIX.4.2 9=68 35=0 34=427 49=JUSTETNA 52=20211209-09:35:36.377 56=TRAFIX 128=LAMP 10=143  
2021-12-09 09:35:47.3823 8=FIX.4.2 9=59 35=0 34=428 49=TRAFIX 52=20211209-09:35:47.377 56=JUSTETNA 10=143  
2021-12-09 09:36:06.4897 8=FIX.4.2 9=68 35=0 34=428 49=JUSTETNA 52=20211209-09:36:06.489 56=TRAFIX 128=LAMP 10=146  
2021-12-09 09:36:17.4950 8=FIX.4.2 9=59 35=0 34=429 49=TRAFIX 52=20211209-09:36:17.489 56=JUSTETNA 10=146  
2021-12-09 09:36:36.5774 8=FIX.4.2 9=68 35=0 34=429 49=JUSTETNA 52=20211209-09:36:36.577 56=TRAFIX 128=LAMP 10=148  
2021-12-09 09:36:47.5852 8=FIX.4.2 9=59 35=0 34=430 49=TRAFIX 52=20211209-09:36:47.578 56=JUSTETNA 10=140  
2021-12-09 09:37:06.6092 8=FIX.4.2 9=68 35=0 34=430 49=JUSTETNA 52=20211209-09:37:06.609 56=TRAFIX 128=LAMP 10=134  
2021-12-09 09:37:17.6125 8=FIX.4.2 9=59 35=0 34=431 49=TRAFIX 52=20211209-09:37:17.609 56=JUSTETNA 10=134  
2021-12-09 09:37:36.6512 8=FIX.4.2 9=68 35=0 34=431 49=JUSTETNA 52=20211209-09:37:36.651 56=TRAFIX 128=LAMP 10=135  
2021-12-09 09:37:47.6592 8=FIX.4.2 9=59 35=0 34=432 49=TRAFIX 52=20211209-09:37:47.650 56=JUSTETNA 10=134  
2021-12-09 09:38:06.7230 8=FIX.4.2 9=68 35=0 34=432 49=JUSTETNA 52=20211209-09:38:06.723 56=TRAFIX 128=LAMP 10=134  
2021-12-09 09:38:17.7240 8=FIX.4.2 9=59 35=0 34=433 49=TRAFIX 52=20211209-09:38:17.723 56=JUSTETNA 10=134  
2021-12-09 09:38:36.7848 8=FIX.4.2 9=68 35=0 34=433 49=JUSTETNA 52=20211209-09:38:36.784 56=TRAFIX 128=LAMP 10=145  
2021-12-09 09:38:47.7959 8=FIX.4.2 9=59 35=0 34=434 49=TRAFIX 52=20211209-09:38:47.785 56=JUSTETNA 10=146  
2021-12-09 09:39:06.8681 8=FIX.4.2 9=68 35=0 34=434 49=JUSTETNA 52=20211209-09:39:06.868 56=TRAFIX 128=LAMP 10=147  
2021-12-09 09:39:17.8690 8=FIX.4.2 9=59 35=0 34=435 49=TRAFIX 52=20211209-09:39:17.868 56=JUSTETNA 10=147  
2021-12-09 09:39:36.9359 8=FIX.4.2 9=68 35=0 34=435 49=JUSTETNA 52=20211209-09:39:36.935 56=TRAFIX 128=LAMP 10=146  
2021-12-09 09:39:47.9450 8=FIX.4.2 9=59 35=0 34=436 49=TRAFIX 52=20211209-09:39:47.936 56=JUSTETNA 10=147  
2021-12-09 09:40:07.0053 8=FIX.4.2 9=68 35=0 34=436 49=JUSTETNA 52=20211209-09:40:07.005 56=TRAFIX 128=LAMP 10=125  
2021-12-09 09:40:17.0028 8=FIX.4.2 9=59 35=0 34=437 49=TRAFIX 52=20211209-09:40:17.004 56=JUSTETNA 10=123  
2021-12-09 09:40:37.0850 8=FIX.4.2 9=68 35=0 34=437 49=JUSTETNA 52=20211209-09:40:37.085 56=TRAFIX 128=LAMP 10=137  
2021-12-09 09:40:47.0947 8=FIX.4.2 9=59 35=0 34=438 49=TRAFIX 52=20211209-09:40:47.084 56=JUSTETNA 10=135  
2021-12-09 09:41:07.1882 8=FIX.4.2 9=68 35=0 34=438 49=JUSTETNA 52=20211209-09:41:07.188 56=TRAFIX 128=LAMP 10=140  
2021-12-09 09:41:17.1985 8=FIX.4.2 9=59 35=0 34=439 49=TRAFIX 52=20211209-09:41:17.188 56=JUSTETNA 10=139  
2021-12-09 09:41:37.2998 8=FIX.4.2 9=68 35=0 34=439 49=JUSTETNA 52=20211209-09:41:37.299 56=TRAFIX 128=LAMP 10=147  
2021-12-09 09:41:47.2984 8=FIX.4.2 9=59 35=0 34=440 49=TRAFIX 52=20211209-09:41:47.300 56=JUSTETNA 10=120  
2021-12-09 09:42:07.4166 8=FIX.4.2 9=68 35=0 34=440 49=JUSTETNA 52=20211209-09:42:07.416 56=TRAFIX 128=LAMP 10=128  
2021-12-09 09:42:17.4230 8=FIX.4.2 9=59 35=0 34=441 49=TRAFIX 52=20211209-09:42:17.415 56=JUSTETNA 10=126  
